:04000000C9EF07F04D
:08000800046ED8CF05F0E0CF33
:1000100006F00001E9CF0CF0EACF07F0E1CF08F0DD
:10002000E2CF09F0D9CF0AF0DACF0BF0F3CF12F01C
:10003000F4CF13F0FACF14F0F5CF15F0F6CF16F099
:10004000F7CF17F000C00EF001C00FF002C010F0A3
:1000500003C011F0F0A630EF00F0F0B02DEF06F085
:100060000EC000F00FC001F010C002F011C003F08C
:100070000CC0E9FF07C0EAFF078E08C0E1FF09C016
:10008000E2FF0AC0D9FF0BC0DAFF12C0F3FF13C0B2
:10009000F4FF14C0FAFF15C0F5FF16C0F6FF17C035
:1000A000F7FF045006C0E0FF05C0D8FF1000F76A54
:1000B000BE0FF66E000EF7220900F5501200313225
:1000C0003341343536423738394345304644F76A90
:1000D000DE0FF66E000EF7220900F5501200637C69
:1000E000777BF26B6FC53001672BFED7AB76CA8288
:1000F000C97DFA5947F0ADD4A2AF9CA472C0B7FD38
:100100009326363FF7CC34A5E5F171D8311504C7F5
:1001100023C31896059A071280E2EB27B27509836C
:100120002C1A1B6E5AA0523BD6B329E32F8453D10D
:1001300000ED20FCB15B6ACBBE394A4C58CFD0EF02
:10014000AAFB434D338545F9027F503C9FA851A33C
:10015000408F929D38F5BCB6DA2110FFF3D2CD0C5A
:1001600013EC5F974417C4A77E3D645D19736081EB
:100170004FDC222A908846EEB814DE5E0BDBE032BC
:100180003A0A4906245CC2D3AC629195E479E7C887
:10019000376D8DD54EA96C56F4EA657AAE08BA78FB
:1001A000252E1CA6B4C6E8DD741F4BBD8B8A703E9D
:1001B000B5664803F60E613557B986C11D9EE1F854
:1001C000981169D98E949B1E87E9CE5528DF8CA1A2
:1001D000890DBFE6426841992D0FB054BB16F76AEE
:1001E000EE0FF66E010EF7220900F55012008D0198
:1001F000020408102040801B366CD8AB4D9A2F5E4D
:10020000BC63C697356AD4B37DFAEFC5913972E401
:10021000D3BD61C29F254A943366CC831D3A74E8EE
:10022000CB8D01020408102040801B366CD8AB4DEA
:100230009A2F5EBC63C697356AD4B37DFAEFC59139
:100240003972E4D3BD61C29F254A943366CC831DC5
:100250003A74E8CB8D01020408102040801B366CF4
:10026000D8AB4D9A2F5EBC63C697356AD4B37DFA7E
:10027000EFC5913972E4D3BD61C29F254A943366BC
:10028000CC831D3A74E8CB8D010204081020408015
:100290001B366CD8AB4D9A2F5EBC63C697356AD4BB
:1002A000B37DFAEFC5913972E4D3BD61C29F254A8F
:1002B000943366CC831D3A74E8CB8D010204081098
:1002C0002040801B366CD8AB4D9A2F5EBC63C6971E
:1002D000356AD4B37DFAEFC5913972E4D3BD61C2FA
:1002E0009F254A943366CC831D3A74E8CB00010EF7
:1002F000EA6E9B0EE96EEF500EE00F0E016E006A83
:10030000002EFED7012EFBD78F0E006E002EFED7DB
:100310000000EF2EF2D7000C0900F5520DE0F6CFE9
:100320009AF1F7CF9BF1F5509EA8FED7AD6E9AC11A
:10033000F6FF9BC1F7FFF0D7000CF19E59EF06F0D6
:100340009384000E81B4010E01019C6F9386000E10
:1003500081B6010E9C179388000E81B8010E9C1780
:10036000938A000E81BA010E9C1504E0000E016E06
:1003700004D003D0010E016E00D00001000C010179
:100380009A6B1A2A1A507D08D8B076D01D50FC0FEF
:100390002DE2040F000141EF02F0929089909292B9
:1003A0008982929489849296898601011FD09290C5
:1003B0008980929289929294898492968986010189
:1003C00015D0929089809292898292948994929683
:1003D000898601010BD092908980929289829294B1
:1003E000898492968996010101D001011BA00AD04F
:1003F0000001A6DF015204E11B901CC09AF11C6AA7
:1004000039D0010100019CDF01522FE0938481B4B7
:1004100004D001019B6B17D00001938681B605D0F3
:10042000010E01019B6F0FD00001938881B805D0A8
:10043000020E01019B6F07D00001938A81BA03D09D
:10044000030E01019B6F01019B51040DF3509D6B45
:100450009C6F036A1D509C25016E9D510322015023
:10046000000125DE1C6E1B8005D01D2A1D500408CE
:1004700001E11D6A1A6A01019AC101F0000165EFEC
:1004800006F0E824F76AF7369D0FF66E040EF722A1
:100490000A00F550FA6E0800F550F96E9A03AE03A3
:1004A000C203D603FF0E01019C6F300E9B5DE90F66
:1004B00044E2170F0001A1EF02F001019C6B3DD057
:1004C000010E01019C6F39D0020E01019C6F35D0E5
:1004D000030E01019C6F31D0040E01019C6F2DD0E1
:1004E000050E01019C6F29D0060E01019C6F25D0DD
:1004F000070E01019C6F21D0080E01019C6F1DD0D9
:10050000090E01019C6F19D00A0E01019C6F15D0D4
:100510000B0E01019C6F11D00C0E01019C6F0DD0D0
:100520000D0E01019C6F09D00E0E01019C6F05D0CC
:100530000F0E01019C6F01D001019CC101F000016F
:10054000000CE824F76AF7365D0FF66E050EF72209
:100550000A00F550FA6E0800F550F96EBA04C004AE
:10056000C804D004D804E004E804F004F80400054A
:1005700038053805380538053805380538050805C3
:100580001005180520052805300501019DBF10D074
:100590000F0E006E9C3900160A0E005C03E2300E4E
:1005A000002602D09D51002600509EA8FED7AD6EB9
:1005B0000F0E9C170A0E9C5D02E2300E02D09D9F2A
:1005C0009D519C279C519EA8FED7AD6E0001000C4A
:1005D00001019A6B9A51030874E39A51040DF35088
:1005E000036A540F016E000E032203C0A2F19A5158
:1005F000040DF350036A040FE96E010E0320EA6E46
:10060000EFCFA3F1A2C1EAFF01C0E9FFA3C1EFFF51
:100610009A51040DF350010F036A540F016E000E3E
:10062000032203C0A2F19A51040DF350010F036A93
:10063000040FE96E010E0320EA6EEFCFA3F1A2C111
:10064000EAFF01C0E9FFA3C1EFFF9A51040DF35087
:10065000020F036A540F016E000E032203C0A2F1C1
:100660009A51040DF350020F036A040FE96E010E54
:100670000320EA6EEFCFA3F1A2C1EAFF01C0E9FFB8
:10068000A3C1EFFF9A51040DF350030F036A540FF7
:10069000016E000E032203C0A2F19A51040DF35023
:1006A000030F036A040FE96E010E0320EA6EEFCF19
:1006B000A3F1A2C1EAFF01C0E9FFA3C1EFFF9A2B9A
:1006C00089D79A512B08D8A0CAD09B6B9B5103089D
:1006D0001DE3036A9B519C0F016E010E032203C0B0
:1006E000A2F1010E9A5D040DF3509B25036A540F8D
:1006F000E96E000E0320EA6EEFCFA3F1A2C1EAFF7C
:1007000001C0E9FFA3C1EFFF9B2BE0D79A51030B78
:1007100032E19CC1A0F19DC19CF19EC19DF19FC1A0
:100720009EF1A0C19FF1036A9C510001D0DCE8CF8B
:100730009CF1036A01019D510001C9DCE8CF9DF1E4
:10074000036A01019E510001C2DCE8CF9EF1036AF9
:1007500001019F510001BBDCE8CF9FF101019A31FB
:10076000006E00323F0E00160050036A000137DDB4
:1007700001019C1B00D09A51040DF350036A540FE1
:10078000016E000E032203C0A2F1040E9A5D040D57
:10079000F350036A540FE96E000E0320EA6EEF5027
:1007A0009C19A2C1EAFF01C0E9FFEF6E9A51040D46
:1007B000F350010F036A540F016E000E032203C0B1
:1007C000A2F1040E9A5D040DF350010F036A540F59
:1007D000E96E000E0320EA6EEF509D19A2C1EAFFF8
:1007E00001C0E9FFEF6E9A51040DF350020F036A46
:1007F000540F016E000E032203C0A2F1040E9A5D95
:10080000040DF350020F036A540FE96E000E03202B
:10081000EA6EEF509E19A2C1EAFF01C0E9FFEF6E38
:100820009A51040DF350030F036A540F016E000E2A
:10083000032203C0A2F1040E9A5D040DF350030FCE
:10084000036A540FE96E000E0320EA6EEF509F1901
:10085000A2C1EAFF01C0E9FFEF6E9A2B32D7000177
:10086000000C01019E6B9E51030838E39F6B9F5162
:10087000030832E39F51040DF350A16BA06F036A8C
:100880009E51A025016EA15103220150440F016E1B
:10089000000E032203C0A1F103C0EAFF01C0E9FF7B
:1008A000EFCFA2F19D51040DF350040DF3CFA3F14E
:1008B0009E51040DF350A3259F25036A540FE96E42
:1008C000000E0320EA6EEF50A219A1C1EAFF01C099
:1008D000E9FFEF6E9F2BCBD79E2BC5D70001000CF5
:1008E00001019D6B9D51030838E39E6B9E510308E7
:1008F00032E39D51040DF350A06B9F6F036A9E512C
:100900009F25016EA05103220150440F016E000E7D
:10091000032201C09FF103C0A0F19D51040DF350CB
:10092000A26BA16F036A9E51A125016EA251032201
:100930000150440FE96E000E0320EA6E036AEF5087
:10094000000167EC00F0A0C1EAFF9FC1E9FFEF6E74
:1009500001019E2BCBD79D2BC5D70001000C48C0B1
:100960009DF149C048F04AC049F04BC04AF09DC1D2
:100970004BF04CC09DF14EC04CF09DC14EF04DC0AF
:100980009DF14FC04DF09DC14FF050C09DF153C03F
:1009900050F052C053F051C052F09DC151F0000CC4
:1009A00001019D6B9D510308D8A0CBD0036A9D51D6
:1009B000440FE96E000E0320EA6EEFCFA0F1036A48
:1009C0009D51440FE96E000E0320EA6EEFCFA1F1B6
:1009D000036A9D51480FE96E000E0320EA6EEF5046
:1009E000A11B036A9D514C0FE96E000E0320EA6EB5
:1009F000EF50A11B036A9D51500FE96E000E0320BA
:100A0000EA6EEF50A1199E6F036A9D51440FE96E83
:100A1000000E0320EA6EEFCFA1F1036A9D51480F4B
:100A2000E96E000E0320EA6EEF50A1199F6FD89077
:100A30009F35A16F006A9FBF008000501B0DF350CF
:100A4000A1199F6F036A9D51440FE96E000E0320A8
:100A5000EA6E9F519E19EF18EF6E036A9D51480F81
:100A6000E96E000E0320EA6EEFCFA1F1036A9D51FB
:100A70004C0FE96E000E0320EA6EEF50A1199F6F34
:100A8000D8909F35A16F006A9FBF008000501B0D5A
:100A9000F350A1199F6F036A9D51480FE96E000E34
:100AA0000320EA6E9F519E19EF18EF6E036A9D5165
:100AB0004C0FE96E000E0320EA6EEFCFA1F1036A3E
:100AC0009D51500FE96E000E0320EA6EEF50A11900
:100AD0009F6FD8909F35A16F006A9FBF0080005024
:100AE0001B0DF350A1199F6F036A9D514C0FE96EC6
:100AF000000E0320EA6E9F519E19EF18EF6E036AF5
:100B00009D51500FE96E000E0320EA6EEF50A019C0
:100B10009F6FD8909F35A16F006A9FBF00800050E3
:100B20001B0DF350A1199F6F036A9D51500FE96E81
:100B3000000E0320EA6E9F519E19EF18EF6E9D2B59
:100B400031D70001000C01019C6B9A6B9A5103088C
:100B50002CE39B6B9B51030826E39B51040DF35040
:100B60009E6B9D6F036A9A519D25016E9E510322D3
:100B70000150440F016E000E032203C09EF19A51F2
:100B8000040DF3509B25036A240FE96E000E032029
:100B9000EA6EEFCF9FF19EC1EAFF01C0E9FF9FC15E
:100BA000EFFF9B2BD7D79A2BD1D793908A809D6B41
:100BB000000157DE010E01019C6F9C51090810E3F2
:100BC00000018EDE01019C2D02D093908A900001DD
:100BD000C6DEE6DE9CC19DF144DE01019C2BEDD713
:100BE00000017EDEBCDE0A0E01019D6F000139DED0
:100BF00001019A6B9A5103082EE39B6B9B510308EA
:100C000028E39A51040DF3509B25036A340F016EBB
:100C1000000E032201C09DF103C09EF19B51040D03
:100C2000F350A06B9F6F036A9A519F25016EA051EC
:100C300003220150440FE96E000E0320EA6EEFCF4D
:100C40009FF19EC1EAFF9DC1E9FF9FC1EFFF9B2B72
:100C5000D5D79A2BCFD70001000C020E01019A6F55
:100C6000FA0E9B6F000177EC01F001019A2FF8D783
:100C700081A2DCD0880EF66E0E0EF76E00018CECB1
:100C800001F0040E01019A6FFA0E9B6F000177ECE0
:100C900001F001019A2FF8D781A241D0A00EF66E83
:100CA0000E0EF76E00018CEC01F0929889889DEF92
:100CB00001F00101986B976B97511F0815E3986B32
:100CC000985307E10001BFEF01F001C098F1010165
:100CD000F7D7036A9751730FE96E010E0320EA6E8E
:100CE00098C1EFFF972BE8D7036A9751730FE96E0E
:100CF000010E0320EA6EEF6A92988998640E9B6F4A
:100D0000000177EC01F092988988640E01019B6FD5
:100D1000000177EC01F09298899822D00101D00E61
:100D2000F66E0E0EF76E00018CEC01F00101976B70
:100D300097511F080DE3036A9751730FE96E010E77
:100D40000320EA6E9EAAFED7AECFEFFF972BF0D717
:100D5000036A9751730FE96E010E0320EA6EEF6A82
:100D60000101976B97510F083EE3D8909735036ABE
:100D7000730FE96E010E0320EA6EEFCF94F1D89065
:100D80009735010F036A730FE96E010E0320EA6EB7
:100D9000EFCF95F195C19BF1000152EC02F001C03B
:100DA0009AF194C19BF152EC02F00150100DF350F6
:100DB00001019A25966F97C1A9FF96C1A8FFA69C2D
:100DC000A69EA684F250006EF29E0F01550EA76EED
:100DD000AA0EA76EA682A6B2FED7A6940050F21263
:100DE0000101972BBFD7000EF66E0F0EF76E0001B4
:100DF0008CEC01F00101976B97510F0816E3F2CFCD
:100E00009AF1F29E97C1A9FFA69CA69EA680A85023
:100E10009ABFF28E9B6F9BC19CF1370E9D6F0001B4
:100E2000C5EC02F00101972BE7D71DD0160EF66E28
:100E30000F0EF76E00018CEC01F09EAA08D09EAA5E
:100E4000FED7AECF99F101010ED00AD00001E8EC37
:100E500002F079DE050E01019B6F000177EC01F0D5
:100E60000001EBD70101460EF66E0F0EF76E000182
:100E70008CEC01F0640E01019B6F000177EC01F036
:100E8000FF00F09030EF00F00D0A4B6579206368A9
:100E9000616E6765206D6F64652E2E2E200D0A0031
:100EA0000D0A506C6561736520456E74657220741F
:100EB0006865206E6577206B6579207468726F7540
:100EC0006768206B65797061642E2E2E200D0A00F4
:100ED0000D0A506C6561736520456E7465722074EF
:100EE0006865206E6577206B6579207468726F7510
:100EF0006768206B6579626F6172643A200D0A0041
:100F00000D0A456E7465726564206B65792069739E
:100F1000203A200D0A000D0A496E20747269676735
:100F20006572206D6F64652E205072657373206149
:100F30006E79206B657920616674657220646F6ECE
:100F4000652E0D0A00000D0A526573746172746992
:100F50006E672E2E2E0D0A000101696B69510F0874
:100F600015E3036A6951040FE96E010E0320EA6E6E
:100F7000F2CF6CF1F29E69C1A9FFA69CA69EA68045
:100F8000A8506CBFF28EEF6E692BE8D70001FBEF23
:100F900007F0F86AD09E078EEA6AE96AB886E10E21
:100FA000AF6E040EB06EA60EAC6E900EAB6EC1505E
:100FB000C00B0F09C16E070EB46E1A6A1B901C6A33
:100FC0001D6A1E6A1F6A246A256A266A276A286AB9
:100FD000296A2A6A2B6A2C6A2D6A2E6A2F6A306A5D
:100FE000316A326A336AF18AF086C00EF212010168
:100FF000386B0001B1D70101376B37511F081EE371
:10100000036A3751140FE96E010E0320EA6E9EAA9F
:10101000FED7AECFEFFF036A3751140FE96E010E12
:101020000320EA6EEF50790807E19EAA05D09EAA38
:10103000FED7AECF38F1F9D7372BDFD7036A375158
:10104000140FE96E010E0320EA6EEF6A376B375119
:101050000F0842E3D8903735036A140FE96E010E8A
:101060000320EA6EEFCF35F1D8903735010F036AD0
:10107000140FE96E010E0320EA6EEFCF36F1036A1A
:101080003751240F016E000E032201C039F103C055
:101090003AF1196AF2BE198EF29E36C19BF1000137
:1010A00052EC02F019BEF28E01C03BF1196AF2BE99
:1010B000198EF29E35C19BF152EC02F019BEF28EF0
:1010C0000150100DF35001013B253AC1EAFF39C12F
:1010D000E9FFEF6E372BBBD7376B37510F0819E39A
:1010E000036A3751240FE96E000E0320EA6EEFCF3A
:1010F00039F1196AF2BE198EF29E39C19CF1370E90
:101100009D6F0001C5EC02F019BEF28E0101372B74
:10111000E4D79EAA12D09EAAFED7AECF38F138519E
:101120007A0802E128D008D09EAA05D09EAAFED750
:10113000AECF38F1F9D71FD01DD0196AF2BE198E83
:10114000F29E0001E8EC02F019BEF28E196AF2BEBE
:10115000198EF29EF8DC19BEF28E196AF2BE198E53
:10116000F29E050E01019B6F000177EC01F019BEA4
:10117000F28E0101CED7376B37510F0819E3036A9E
:101180003751340FE96E000E0320EA6EEFCF39F1CC
:10119000196AF2BE198EF29E39C19CF1370E9D6F0D
:1011A0000001C5EC02F019BEF28E0101372BE4D725
:1011B000196AF2BE198EF29E050E9B6F000177EC44
:0A11C00001F019BEF28E17D70300EC
:020000040030CA
:0E00000024CE181E008781000FC00FE00F40B5
:00000001FF
;PIC18F2550
;CRC=BCCC  CREATED="14-Dec-16 12:27"
