:08000000E80804000000000004
:1004000080C0B30026E8B70070C0B30027E8B7008B
:1004100060C0B30028E8B70050C0B30029E8B700B7
:1004200040C0B3002AE8B70030C0B3002BE8B700E3
:1004300020C0B3002CE8B70010C0B3002DE8B7000F
:1004400040C0B3002EE8B70030C0B3002FE8B700BB
:1004500020C0B30030E8B70050C0B30031E8B700A7
:1004600010C0B30032E8B70010C0B30033E8B700E3
:1004700020C0B30034E8B70030C0B30035E8B7009F
:1004800000000600851F7800861F78000001EB0041
:100490000103780064C110004211DD000200DD009C
:1004A000800278000C60EC000C60ED000D00320062
:1004B00005007800C42ADD004C00DE00F000B20028
:1004C0000003B000A20320000200E1000100390097
:1004D0000D40B4002322AF00FEFF3700201188003A
:1004E000F1FF37004F037800CF02780000000600CC
:1004F000F0CFB30063E8B70062C8BF000160EF004F
:100500000083B2001F0032001080B2001F003200D2
:100510003080B200200032001080B2002100320092
:100520007080B200220032001080B200230032003E
:100530003080B200240032001080B200250032006A
:10054000F080B200260032001080B2002700320096
:100550008087B200280032003080B20029003200CB
:100560001080B2002A0032007080B2002B003200EE
:100570001080B2002C0032003080B2002D0032001A
:100580002F0037006368EF002D00370010C0B30064
:1005900063E8B7002A00370020C0B30063E8B70063
:1005A0002700370030C0B30063E8B70024003700ED
:1005B00040C0B30063E8B7002100370050C0B3006B
:1005C00063E8B7001E00370060C0B30063E8B700FF
:1005D0001B00370070C0B30063E8B7001800370095
:1005E00080C0B30063E8B7001500370090C0B300C7
:1005F00063E8B70012003700A0C0B30063E8B7009B
:100600000F003700B0C0B30063E8B7000C0037003C
:10061000C0C0B30063E8B70009003700D0C0B30022
:1006200063E8B70006003700E0C0B30063E8B70036
:1006300003003700F0C0B30063E8B70000003700E4
:1006400063C8BF000160EF0000A0B7000000060013
:10065000851F7800861F7800871F7800881F780024
:10066000A2C8BF00A4E8B700A468D500A468D5005C
:10067000A468D500A2C8BF0067406000A5E8B70025
:10068000A368EF00A3C8BF00244580000024E10058
:1006900008003600144580004822DE00040078007F
:1006A0009E08B40080027800804AEB00A368EC004A
:1006B000F4FF3700A4C8BF00A3E8B70014458000CA
:1006C0004822DE006824E10010003100144580005B
:1006D0004822DE00040078009E08B4008002780002
:1006E000144580004822DE0023458000034052006C
:1006F0000080FB000160EF00044580000400400022
:10070000904A7800A368EC00ECFF3700A368EF0084
:10071000144580004822DE006824E1000B0031000F
:10072000144580004822DE00638A200083024200D4
:10073000144580004822DE00040078009E08B400C2
:10074000904A7800A368EC00F1FF3700A548E2006A
:1007500052003200A4C8BF00A3E8B70014458000CF
:100760004822DE006824E1004C003100A3C8BF002D
:10077000A448E30018003A00144580004822DE0037
:10078000040078009E08B4008002780014458000C0
:100790004822DE00638A20000300420010437800F4
:1007A0000D60EF0007002000244580004822DE0095
:1007B0000960EF000600BE000402E8000402E90040
:1007C000030032008100D1000080D300FBFF37001E
:1007D000804A78002F003700144580004822DE0050
:1007E000040078009E08B400800278001445800060
:1007F0004822DE00638A2000030042001043780094
:100800000D60EF0007002000244580004822DE0034
:100810000960EF000600BE000402E8000402E900DF
:10082000030032008100D1000080D300FBFF3700BD
:1008300000437800144580004822DE00E1035200A6
:10084000648A200004804300904378000F60EF002A
:1008500008002000244580004822DE00830020009C
:1008600004805100000278000700780088007800BA
:100870000402E8000402E900030032000000D00096
:100880008180D200FBFF37000D60EF000000730095
:10089000804A7800A368EC00B0FF37004F0478006E
:1008A000CF0378004F037800CF02780000000600E5
:1008B000851F7800861F7800871F7800881F7800C2
:1008C000A2C8BF00A4E8B700A468D500A468D500FA
:1008D000A468D500A2C8BF0067406000A5E8B700C3
:1008E000A368EF00A3C8BF00244580000024E100F6
:1008F0000A003600144580004822DE007300200004
:1009000084825100050078009E08B40080027800BF
:10091000804AEB00A368EC00F2FF3700A4C8BF00D8
:10092000A3E8B700144580004822DE006824E100F7
:1009300013003100144580004822DE0073002000BF
:1009400084825100050078009E08B400800278007F
:10095000144580004822DE0073002000048351000B
:10096000244580000960EF0004034300060078007E
:10097000A008B400904A7800A368EC00E9FF3700B3
:10098000A368EF00144580004822DE006824E100DF
:100990000B003100144580004822DE00638A2000ED
:1009A00083024200144580004822DE0004007800E3
:1009B0009E08B400904A7800A368EC00F1FF37006D
:1009C000A548E2005B003200A4C8BF00A3E8B7005E
:1009D000144580004822DE006824E1005500310003
:1009E000A3C8BF00A448E3001C003A0014458000DF
:1009F0004822DE0073002000848251000500780048
:100A00009E08B40080027800144580004822DE0071
:100A10007300200004835100648A20000400430016
:100A2000104378000D60EF0007002000244580008F
:100A30004822DE000960EF000600BE000402E80064
:100A40000402E900030032000000D0008180D200DF
:100A5000FBFF3700804A78003400370014458000DF
:100A60004822DE00730020008482510005007800D7
:100A70009E08B40080027800144580004822DE0001
:100A80007300200004835100648A200004004300A6
:100A9000104378000D60EF0007002000244580001F
:100AA0004822DE000960EF000600BE000402E800F4
:100AB0000402E900030032000000D0008180D2006F
:100AC000FBFF370000437800144580004822DE0019
:100AD0008300200084835100648A20000480430046
:100AE000904378000F60EF0008002000244580004C
:100AF0004822DE00830020000480510000027800BC
:100B000007007800880078000402E8000402E90089
:100B1000030032008100D1000080D300FBFF3700CA
:100B20000D60EF0000007300804A7800A368EC00BD
:100B3000A7FF37004F047800CF0378004F037800F9
:100B4000CF02780000000600851F7800861F78001D
:100B5000A228EF00A228EF00144580006820E100E1
:100B60000E003D00104580009C08B4008002780013
:100B7000104580009E08B4001043780010458000A6
:100B8000A008B40000027800144078000040730010
:100B9000804A7800A228EC00EFFF37004F0378006E
:100BA000CF02780000000600851F780084C8BF00CF
:100BB000A2E8B70064882000F44488008208F800A6
:100BC000A008F9002803020000000000244480006F
:100BD0000960EF000304200084825100A208F8009D
:100BE000E5FF9F00A208F900E3882000F344880095
:100BF0008208F800A008F900580402000000000074
:100C00008008F8009C08F90064882000F4448800FB
:100C1000E488200004458800A405020000000000CC
:100C2000CF02780000000600851F78008428EF00BE
:100C3000244480006820E10008003D00204480003A
:100C40008008B40080027800204480008208B4004C
:100C5000904A78008428EC00F5FF3700CF02780036
:100C600000000600851F7800861F78008868EF0066
:100C70008628EF00344480006820E10022003D0017
:100C80007400200033448000830252000500780085
:100C90008208B400904278000B60EF0074002000DE
:100CA0003344800003035200060078008408B40037
:100CB00000027800144078000160EF0085024000D7
:100CC00088C8BF000160EF00050040005044880064
:100CD0007400200033448000830252000500780035
:100CE0008008B4008002780050448000F00FB20009
:100CF000804A78008BC8BF000160EF0088E8B70029
:100D00008628EC00DBFF37004F037800CF02780025
:100D100000000600851F7800861F78008628EF00F7
:100D200000000000000000000000000000000000C3
:100D300000000000000000000000000000000000B3
:100D40008628EF00344480006820E1000E003D005A
:100D5000304480008008B400800278003044800075
:100D60008208B40010437800304480008408B40046
:100D7000000278001440780000406B00804A780040
:100D80008628EC00EFFF37000000000000000000A4
:100D90000000000000000000000000004F03780089
:100DA000CF02780000000600851F780084C8BF00CD
:100DB000A2E8B70064882000F44488008208F800A4
:100DC000A008F9005804020000000000244480003C
:100DD0000960EF000304200084825100A208F8009B
:100DE000E5FF9F00A208F900E3882000F344880093
:100DF0008208F800A008F9002803020000000000A3
:100E00008008F8009C08F90064882000F4448800F9
:100E1000E488200004458800A405020000000000CA
:100E2000CF02780000000600851F78005C68EF00A4
:100E3000E44280006824E10026003100E4428000A2
:100E40000960EF006386200083024200E4428000D4
:100E50000960EF00E382200003004200904A78001E
:100E6000E44280000960EF00E38620008302420034
:100E7000E44280000960EF0063822000030042002A
:100E8000904A7800E44280000960EF00638120000E
:100E900083024200E44280000960EF00638020008A
:100EA00003004200904A7800E44280000960EF00AD
:100EB000E381200083024200E44280000960EF00E9
:100EC000E380200003004200904A78005C68EC0058
:100ED000D7FF37005C68EF00E44280000302200087
:100EE000041CE100B000360080C0B30084E8B70005
:100EF000E485200004448800E48120001444880034
:100F0000D405020000000000E481200004448800B1
:100F1000E48520001444880014060200000000004C
:100F2000E485200004448800E48120001444880003
:100F30006481200024448800320602000000000082
:100F4000E481200004448800E485200014448800E3
:100F50001406020000000000E4852000044488001C
:100F6000E481200014448800E486200024448800A2
:100F70008A06020000000000E4812000044488008A
:100F8000E4852000144488001406020000000000DC
:100F900030C0B30084E8B700E48520000444880032
:100FA0006481200014448800D40602000000000080
:100FB0006481200004448800E485200014448800F3
:100FC00014060200000000007E3E09000000000040
:100FD0005C48E20002003A00C802A900CC02A80066
:100FE000E44280006124E10002003A00C822A90026
:100FF000CC22A800E485200004448800E48120007D
:101000001444880064812000244488008A06020079
:10101000000000005C48E20002003A00C802A9009B
:10102000CC02A900E44280006124E10002003A0001
:10103000C822A900CC22A9007E3E090000000000C1
:101040006481200004448800E48520001444880062
:10105000140602000000000080C0B30084E8B7005E
:10106000E48520000444880064862000144488003D
:10107000D4050200000000006486200004448800BB
:10108000E4852000144488001406020000000000DB
:10109000E48520000444880064862000144488000D
:1010A000E48620002444880032060200000000008C
:1010B0006486200004448800E485200014448800ED
:1010C00014060200000000007628EF00B443800000
:1010D0006720E10006003D0084872000B3438000C4
:1010E00084824100804AEB007628EC00F7FF37004D
:1010F0005CC8BF007FE8B700E48520000444880096
:1011000064862000144488008487200024448800DA
:101110008A06020000000000648620000444880063
:10112000E48520001444880014060200000000003A
:1011300030C0B30084E8B700E48520000444880090
:10114000E486200014448800D40602000000000059
:10115000E486200004448800E485200014448800CC
:101160001406020000000000E4852000044488000A
:101170006486200014448800E4862000244488000B
:101180008A06020000000000E48620000444880073
:10119000E4852000144488001406020000000000CA
:1011A0005C68EC004CFF3700CF02780000000600BE
:1011B0000000E0004220AF0004003700793E090043
:1011C000000000000000E900F9FF37000000060001
:1011D00081E0A80090F02100A4A6B7003000200014
:1011E000C8A6B7006004200042E7B70070052000E1
:1011F00042E7B70042C7A800040028000411880095
:1012000004402000141188002062A800041A200065
:10121000441188002CA3EF000F782200F07F2200F9
:1012200020A0B700000000000028EF005768EF0082
:1012300000020200000000005A28EF00D4428000A3
:10124000030220000418E10016003400648320002B
:10125000D3428000848241002202AE00FEFF3700AC
:1012600030118000804A780064832000D3428000DF
:10127000048041001042780094C7B20007003A0091
:101280002202AE00050037002202AE00FEFF37004A
:101290003011800057E8B700F9FF37005A28EC00FA
:1012A000E6FF370064832000D3428000848241003F
:1012B000804AEB005A28EF00D44280006820E10009
:1012C0000B003D0064822000D34280000480410076
:1012D00090427800054078000160EF002170200006
:1012E00042020200000000005A28EC00F2FF370022
:1012F0005A28EF00D44280006820E1000B003D0036
:10130000E4822000D34280000480410090427800B3
:10131000054078000160EF002170200042020200C9
:10132000000000005A28EC00F2FF37005A28EF00B6
:10133000D44280007020E10037003D00D44280009C
:101340006220B8008002780064832000048042009C
:10135000C442800000429000C4428800D442800011
:101360006220B80080027800E1824200648320009D
:10137000048042001040780059E8B700D442800051
:101380006820E10011003D0064802000D34280000D
:101390008482410059C8BF0062E8B70078020200A9
:1013A000000000000003780058C8BF0062E8B700E2
:1013B0007802020000000000000278007020B800EF
:1013C00006004000804A780011003700D4428000B7
:1013D000E8025200E48020008482420059C8BF0025
:1013E00062E8B70078020200000000000003780005
:1013F00058C8BF0062E8B700780202000000000091
:10140000000278007020B80006004000804A780092
:101410005A28EC00C6FF37005A28EF00D44280005B
:101420006820E1000B003D0064802000D342800072
:101430000480410090427800054078000160EF0090
:101440002170200042020200000000005A28EC0037
:10145000F2FF37005A28EF00D44280006820E100F4
:101460000B003D00E4802000D34280000480410056
:1014700090427800054078000160EF002170200064
:1014800042020200000000005A28EC00F2FF370080
:101490002202AE00130037002202AE00FEFF37002A
:1014A0003011800057E8B700B44280004822DE00C7
:1014B000A4C7B20002003A0010003700080037004D
:1014C0002202AE00050037002202AE00FEFF370008
:1014D0003011800057E8B700F9FF370007003700E8
:1014E0000500370014070200000000005000200033
:1014F000D808020000000000E5FF37005A28EF007E
:10150000D44280006820E1000B003D00648120008F
:10151000D34280000480410090427800054078006A
:101520000160EF0021702000420202000000000074
:101530005A28EC00F2FF37005A28EF00D44280000E
:101540006820E1000B003D00E4812000D3428000D0
:101550000480410090427800054078000160EF006F
:101560002170200042020200000000005A28EC0016
:10157000F2FF370050002000D808020000000000F1
:081580002DFF37000040FE00C2
:08AFF800F5FB00007F3F0000A3
:00000001FF
;PIC24FJ32GA002
;CRC=9E57  CREATED="05-Jun-15 15:35"
