:10000000AFEF0EF06896000C046ED8CF05F0E0CF8D
:1000100006F00001E9CF0CF0EACF07F0E1CF08F0DD
:10002000E2CF09F0D9CF0AF0DACF0BF0F3CF12F01C
:10003000F4CF13F0FACF14F0F5CF15F0F6CF16F099
:10004000F7CF17F000C00EF001C00FF002C010F0A3
:1000500003C011F0A0AA30EF00F0A1BAA8EF09F098
:100060000EC000F00FC001F010C002F011C003F08C
:100070000CC0E9FF07C0EAFF078E08C0E1FF09C016
:10008000E2FF0AC0D9FF0BC0DAFF12C0F3FF13C0B2
:10009000F4FF14C0FAFF15C0F5FF16C0F6FF17C035
:1000A000F7FF045006C0E0FF05C0D8FF1000F76A54
:1000B000BE0FF66E000EF7220900F5501200000385
:1000C00002FFFFFFFFFFFFFFFFFFFFFFFFFFF76ADA
:1000D000DE0FF66E000EF7220900F550120000FF49
:1000E00002FFFFFFFFFFFFFFFFFFFFFFFFFFF76ABA
:1000F000FE0FF66E000EF7220900F55012004000C8
:1001000008004000000000000000000000000000A7
:100110000000000000000000000000000000F76A7E
:100120002E0FF66E010EF7220900F5501200400066
:10013000000040000000000000000000000000007F
:100140000000000000000000000000000000F76A4E
:100150005E0FF66E010EF7220900F550120009023B
:100160004300020100803209040000010202010084
:1001700005240010010424020205240600010524C0
:10018000010001070581030800FA09040100020AC1
:10019000000000070502024000010705820240003E
:1001A0000100F76AB20FF66E010EF7220900F55052
:1001B00012000200F76AC40FF66E010EF722090062
:1001C000F550120012171B20FFFFFFFFF76ADC0F2C
:1001D000F66E010EF7220900F5501200120110010F
:1001E0000200004061043300000101020001F76ACF
:1001F000FE0FF66E010EF7220900F55012000403FF
:10020000090408034300430053001803530045004A
:100210005200490041004C002000440045004D00C0
:100220004F00F76A320FF66E020EF7220900F55002
:100230001200637C777BF26B6FC53001672BFED7B2
:10024000AB76CA82C97DFA5947F0ADD4A2AF9CA45F
:1002500072C0B7FD9326363FF7CC34A5E5F171D8CF
:10026000311504C723C31896059A071280E2EB27BD
:10027000B27509832C1A1B6E5AA0523BD6B329E3E0
:100280002F8453D100ED20FCB15B6ACBBE394A4CC0
:1002900058CFD0EFAAFB434D338545F9027F503C40
:1002A0009FA851A3408F929D38F5BCB6DA2110FF6C
:1002B000F3D2CD0C13EC5F974417C4A77E3D645D69
:1002C000197360814FDC222A908846EEB814DE5EF6
:1002D0000BDBE0323A0A4906245CC2D3AC6291954A
:1002E000E479E7C8376D8DD54EA96C56F4EA657A86
:1002F000AE08BA78252E1CA6B4C6E8DD741F4BBD27
:100300008B8A703EB5664803F60E613557B986C1D3
:100310001D9EE1F8981169D98E949B1E87E9CE55F0
:1003200028DF8CA1890DBFE6426841992D0FB0549A
:10033000BB16F76A420FF66E030EF7220900F5505E
:1003400012008D01020408102040801B366CD8ABCF
:100350004D9A2F5EBC63C697356AD4B37DFAEFC55C
:10036000913972E4D3BD61C29F254A943366CC8330
:100370001D3A74E8CB8D01020408102040801B3622
:100380006CD8AB4D9A2F5EBC63C697356AD4B37DEB
:10039000FAEFC5913972E4D3BD61C29F254A943307
:1003A00066CC831D3A74E8CB8D010204081020400E
:1003B000801B366CD8AB4D9A2F5EBC63C697356AEE
:1003C000D4B37DFAEFC5913972E4D3BD61C29F25E4
:1003D0004A943366CC831D3A74E8CB8D010204083D
:1003E000102040801B366CD8AB4D9A2F5EBC63C684
:1003F00097356AD4B37DFAEFC5913972E4D3BD6104
:10040000C29F254A943366CC831D3A74E8CB8D0194
:10041000020408102040801B366CD8AB4D9A2F5E2A
:10042000BC63C697356AD4B37DFAEFC5913972E4DF
:10043000D3BD61C29F254A943366CC831D3A74E8CC
:10044000CB006D92699468A402D06894FCD7B4EF95
:1004500009F0400E0401016F040E036F180E026FC5
:10046000880E006F046B040E076F580E066F0001B4
:10047000000C70A002D0EDDF7090689ABDEF09F01B
:100480006A6A6892C3EF09F00101F291F1BFF2814B
:10049000F19FF151100803E2000E016E1BD0F2A192
:1004A0000DD0036AF151000102DEFF0802E1000EE7
:1004B00001D0010E016E01010DD00CD0036AF15183
:1004C000000105DEFF0802E1000E01D0010E016E01
:1004D000010100D00001000C0101F651F803F3CF37
:1004E00001F0F4CF00F0F903F3500026F751F803C0
:1004F000F3500020026E0001000C036A0101F0516C
:10050000700FE96E0F0E0320EA6EEF6AF0C1F1F191
:100510000001BADF015227E00101F76BF0C1F6F1EB
:10052000F96B080EF86F0001D7DF010101C0E9FF88
:10053000040E0224EA6EEF6AF76BF0C1F6F1F96B74
:10054000080EF86F0001C8DF02C0F2F101C0F1F13E
:10055000040E0101F127000EF223F1C1E9FF040EA0
:10056000F225EA6EEF6A0001000C010E0101EF6F47
:10057000EF510F0807E3EFC1F0F10001BEDF010109
:10058000EF2BF6D70001000C2C6A2B6A250E2A6E81
:10059000800E296E2D6A2E6A080E2F6E7E6B7D915D
:1005A000316A306A796B7A91000C0101E56BE55193
:1005B00001080AE3036AE551270FE96E000E0320E4
:1005C000EA6EEF6AE52BF3D70001DEDF1B6A010E4E
:1005D0001C6E1A6A000C6A6A686A9F0E6B6E3D0E8A
:1005E000696E6E6AC2DFE1DF160E706E68A602D019
:1005F00009DDFCD76D982DDF030E226EC9EF09F0DF
:10060000698468986D82CFEF09F0689CD5EF09F096
:10061000EAC123F0000CFF0E236E000C0101E86B11
:1006200026522CE0E8513F0829E31D50000A000142
:1006300005E0020A09E0010A0DE012D0036A255024
:1006400086DDE8CFE9F10CD0036A2550D0DDE8CF94
:10065000E9F106D0036A2550B9DDE8CFE9F100D011
:10066000252A26060101E851E82B580FE96E040EF1
:10067000EA6ED8B0EA2AE9C1EFFFD2D7265204E1E8
:10068000E851400801E01A6AE8C1EAF10001C0DF60
:10069000000C256A1D6A04011B51010A000107E0D4
:1006A000030A0AE0010A0BE0220A1BE02BD0120E1B
:1006B000266E030E1D6E28D0430E266E25D0020E28
:1006C0001D6E036A04011A511E0FE96E000E03200D
:1006D000EA6EEFCF25F0036A2550000188DD266E13
:1006E00013D0036A04011A51000164DD256E253C14
:1006F00001D006D0036A25502ADD266E05D002D02F
:100700008ADF0ED088DF0CD004011F5305E126508C
:100710001E5D02E21EC426F0010E1A6E00017EDF8D
:10072000DFEF04F00101E75306E1040E226E000141
:100730001CDFE8D00101050E226E040EEA6F980E50
:10074000E96F010EE86FE8510F08D8A0DBD0E8C1CF
:10075000F0F10001D2DE0101EB6B036AE851000108
:10076000B6DCFF0865E0040E0101EB6FD890E835B8
:10077000036A0001D4DC0900F5CF03F00101EC6F3E
:1007800003C0EDF1F76BE8C1F6F1F96B080EF86FF5
:100790000001A2DE01C0EFF1010E01010124016E92
:1007A000000E0220036E01C0E9FF040E0324EA6E6E
:1007B000ECC1EFFFF76BE8C1F6F1F96B080EF86FCB
:1007C00000018ADE01C0EFF1020E01010124016E79
:1007D000000E0220036E01C0E9FF040E0324EA6E3E
:1007E000EAC1ECFFED52E9C1EFFFD890E835036AAA
:1007F000000195DC0900F5CF03F00101E927035062
:10080000EA23880EEE6FEDB1EE81EDB3EE83F76B68
:10081000E8C1F6F1F96B080EF86F00015DDE010129
:1008200001C0E9FF040E0224EA6EEEC1EFFF0001F1
:10083000036A0101E85100013ADCFF0847E00101C9
:10084000EB83F76BE8C1F6F1F96B080EF86F000166
:1008500043DE02C0F0F101C0EFF1040E0101EF2709
:10086000000EF023020EEF25016E000EF021036E44
:1008700001C0E9FF040E0324EA6EEAC1ECFFED5269
:10088000E9C1EFFFD890E835036A000130DC0900C8
:10089000F5CF03F00101E9270350EA23F76BE8C124
:1008A000F6F1F96B080EF86F000116DE02C0F0F1E8
:1008B00001C0EFF1040E0101EF27000EF023EFC19C
:1008C000E9FF040EF025EA6E400EEF6E0101EB51D8
:1008D000060802E10E0EEB6F036AE851000157ECC7
:1008E00000F0010803E00101EB890001036A010146
:1008F000E851700FE96E0F0E0320EA6EEBC1EFFFB7
:10090000E82B21D70001D7EF04F004011951000AA8
:1009100000010DE0010A15E0020A20E0060A2AE0C3
:10092000030A31E00E0A31E0010A37E046D01CC06C
:1009300058F40401596B020E0101EA6F000168DEF0
:100940003ED004011A2D07D0010E1C160101EA6BDE
:1009500000015EDE02D000015EDE31D004011A2DFE
:1009600006D01C820101EA6B000152DE02D00001B8
:1009700052DE25D0020E1A6E1AC424F00101EA6B71
:10098000000146DE1CD085D61AD01BC058F4010EDB
:100990000101EA6F00013CDE12D004011A51010886
:1009A0000AE31AC41BF01AC4E7F10001BBD6010127
:1009B000EA6B00012DDE000102D02DDE00D079EFC0
:1009C00006F01BC0E7F104011951000A000105E01F
:1009D0000A0A0CE0010A2CE040D00401586B596B64
:1009E000020E0101EA6F000113DE39D00101E75365
:1009F0001CE0010EE75D036A0001D1EC00F0016E1E
:100A000004011C5DD8A002D001010FD0036A1C5163
:100A1000270FE96E000E0320EA6EEFCF58F4010EA7
:100A20000101EA6F0001F4DD02D00001F4DD17D00E
:100A30000101E7530FE0036A04011C51270FE96E1F
:100A4000000E0320EA6E1AC4EFFF0101EA6B0001F9
:100A5000DFDD02D00001DFDD02D0DDDD00D079EF87
:100A600006F00101E891E7BFE881E79FE8A119D00E
:100A7000F76BE7C1F6F1F96B080EF86F00012CDD9A
:100A800002C0EAF101C0E9F1040E0101E927000EFC
:100A9000EA23E9C1E9FF040EEA25EA6E880EEF6E4B
:100AA0000FD0F76BE7C1F6F1F96B080EF86F000194
:100AB00013DD010101C0E9FF040E0224EA6EEF6AB2
:100AC0000001E3EF05F00101E891E7BFE881E79F4E
:100AD000E8A119D0F76BE7C1F6F1F96B080EF86FD2
:100AE0000001FADC02C0EAF101C0E9F1040E0101E3
:100AF000E927000EEA23E9C1E9FF040EEA25EA6EC0
:100B0000840EEF6E10D0F76BE7C1F6F1F96B080EAB
:100B1000F86F0001E1DC010101C0E9FF040E0224CD
:100B2000EA6E840EEF6E0001EBEF05F00101E89133
:100B3000E7BFE881E79FE8A119D0F76BE7C1F6F1BD
:100B4000F96B080EF86F0001C7DC02C0EBF101C0C1
:100B5000EAF1040E0101EA27000EEB23EAC1E9FFE6
:100B6000040EEB25EA6EEFCFE9F110D0F76BE7C189
:100B7000F6F1F96B080EF86F0001AEDC010101C05F
:100B8000E9FF040E0224EA6EEFCFE9F1E9AF02D0EB
:100B9000E9B502D0000E01D0010E016E0001F7EFA1
:100BA00005F01CC4F1F170DC01522EE00401195172
:100BB000010A000105E0020A0BE0030A11E022D05D
:100BC0001CC4E7F14ED70101EA6B000121DD1CD006
:100BD0001CC4E7F178D70101EA6B000119DD14D0DC
:100BE0000401586B596B1CC4E7F100019FD70152F7
:100BF00003E0010E0401586F020E0101EA6F0001CB
:100C000007DD02D008DD00D079EF06F0FE0E236E7E
:100C1000000C04011C2D01D002D01C534FE11951CE
:100C2000000A00010BE0010A0DE0210A1CE0010AA4
:100C30001FE0030A30E0010A35E03DD0010E806F6D
:100C4000E5DF3BD0040EEA6E580EE96EE26A320E22
:100C5000E16E080E016EE6CFEEFF012EFCD71EC43A
:100C6000EAF1D6DC2AD0020E806F7D81CFDF25D05D
:100C7000040EEA6E580EE96EE26A290EE16E070E66
:100C8000016EE6CFEEFF012EFCD7070E0101EA6FE1
:100C90000001BEDC12D01AC47EF00101EA6B000133
:100CA000B7DC0BD01AC431F01BC430F00101EA6B81
:100CB0000001AEDC02D0AFDC00D00401000179EF0E
:100CC00006F01A6A040118517F0B000A000107E0C0
:100CD000010A07E0030A07E0230A07E008D015D657
:100CE00008D06FD606D05DD704D093D702D093DC5E
:100CF00000D0DFEF08F00101F76BE8C1F6F1F96B06
:100D0000080EF86F00016CEC02F0010101C0E9FF70
:100D1000040E0224EA6EEFCFEAF1E951020806E17F
:100D2000EAAD02D0E96B02D0010EE96FE951030888
:100D30001CE1840EEA6FF76BE8C1F6F1F96B080E5F
:100D4000F86F00016CEC02F002C0EEF101C0EDF1B1
:100D5000040E0101ED27000EEE23EDC1E9FF040EA4
:100D6000EE25EA6E840EEF6E07D0E92D03D0C80E93
:100D7000EA6F02D0880EEA6FD890E835036A000166
:100D80008FEC00F00900F5CF03F00101EB6F03C019
:100D9000ECF1F76BE8C1F6F1F96B080EF86F0001A2
:100DA0006CEC02F001C0EDF1010E01010124016EB5
:100DB000000E0220036E01C0E9FF040E0324EA6E58
:100DC000EBC1EFFFECB1EA81ECB3EA83F76BE8C16A
:100DD000F6F1F96B080EF86F00016CEC02F00101FE
:100DE00001C0E9FF040E0224EA6EEAC1EFFF000130
:100DF000000C036A0101F551700FE96E0F0E03201C
:100E0000EA6EEF521BE0F76BF5C1F6F1F96B080ED5
:100E1000F86F00016CEC02F002C0F7F101C0F6F1CE
:100E2000040E0101F627000EF723F6C1E9FF040EB8
:100E3000F725EA6EEFCFF6F1F6AF02D0000E01D043
:100E4000010E016E0001000CF0C1F5F1D2DF01527C
:100E5000D8B486D00101F76BF0C1F6F1F96B080E3A
:100E6000F86F00016CEC02F002C0F6F101C0F5F180
:100E7000040E0101F527000EF623010EF525016E83
:100E8000000EF621036E01C0E9FF040E0324EA6E92
:100E9000F1C1EFFFF351020820E1F76BF0C1F6F169
:100EA000F96B080EF86F00016CEC02F002C0F6F16D
:100EB00001C0F5F1040E0101F527000EF623F5C17E
:100EC000E9FF040EF625EA6EEFCFF4F1F4AD02D09F
:100ED000F36B02D0010EF36F1AD0F351040817E13F
:100EE000F76BF0C1F6F1F96B080EF86F00016CECCE
:100EF00002F0010101C0E9FF040E0224EA6EEFCF07
:100F0000F4F1F4AD03D0010EF36F01D0F36BF32DC8
:100F100003D0C80EF46F02D0880EF46FF2B1F481E2
:100F2000F2B3F483F76BF0C1F6F1F96B080EF86FCA
:100F300000016CEC02F002C0F6F101C0F5F1040E04
:100F40000101F527000EF623F5C1E9FF040EF62591
:100F5000EA6EF4C1EFFF010E016E05D000D0000172
:100F6000000E016E01010001000C8051010A03E036
:100F7000030A15E028D0EA6A320EE96E040EE26E2A
:100F8000180EE16E080E016EE6CFEEFF012EFCD7C3
:100F90000101EA6B000108EC03F0806B16D0EA6AED
:100FA000290EE96E040EE26E180EE16E070E016E58
:100FB000E6CFEEFF012EFCD7806B0101EA6B00014A
:100FC00008EC03F002D0806B00D024EF08F00101A0
:100FD000F76BE8C1F6F1F96B080EF86F00016CECE5
:100FE00002F002C0EAF101C0E9F1010E01010124A1
:100FF000016E000E0220036E01C0E9FF040E0324FF
:10100000EA6E036AEFCF01F003C002F0000118EFAF
:1010100008F07A91020E0101E86FE96F00016BDEC2
:10102000000C7A817C6B020E0101E86F0001CFD7C2
:1010300001C07BF07B5301E1ECDF2BEF08F00101F5
:10104000E75304E1000191D706D00101E7510208FE
:1010500003E10001E6D701010001000CE8C16EFFC9
:101060000101E85303E0040E226E02D0020E226E4C
:10107000000140EF08F01B6A1A6A24C0E8F1EED7BD
:10108000B9EF08F0E8C1F5F1B4DE01524AE0010120
:10109000F76BE8C1F6F1F96B080EF86F00016CEC24
:1010A00002F002C0F1F101C0F0F1040E0101F027DD
:1010B000000EF123020EF025016E000EF121036EE9
:1010C00001C0E9FF040E0324EA6EECCF03F0ED52F9
:1010D000EFCFEEF103C0EFF1EFC1EAFFEEC1E9FFA0
:1010E000EAC1E2FFE9C1E1FFECC102F0EBC101F0AE
:1010F000015202E0022A02D0025206E0E6CFEEFFE1
:10110000012EFCD7022EFAD7E8C1F0F1ECC1F2F1C2
:10111000EBC1F1F1EDC1F3F1000196DE015003D016
:1011200000D0000E016E000C020E0101E86FEA6BA8
:101130003A0EE96FEC6B79C0EBF1020EED6F000136
:10114000A1DF79C07FF0796B000C795301E0ECDF0F
:10115000C0EF08F00101E7530EE11A2C05D00001A1
:101160000EEC03F006D001011A50020803E1000161
:1011700082D7010106D0E751020803E10001E5D75B
:1011800001010001000C21300101E56FE533E53379
:101190001F0EE51721524FE1040100513C0B0101E4
:1011A000E66F430E040100170101E651340825E102
:1011B00004010451800B01E0046B000182D56D989D
:1011C000233C07D00101E86B030EE96F000193DDBA
:1011D00012D00101E86B020EE96F00018CDD235093
:1011E000FE0809E00101F06BF26B23C0F1F1040E7F
:1011F000F36F000129DE1DD00101E65104081AE158
:10120000E76B00011CDF0101E86B020EE96F0001D2
:1012100072DD2350FE080CE0233C01D009D001010F
:10122000F06BF26B23C0F1F1010EF36F00010CDEE5
:1012300000D001018AD02150040818E1430E0401B6
:101240000417FF0E236E0101E76B000183DF233CCF
:1012500001D00AD00101F06BF26B23C0F1F1020E54
:10126000F36F0001F1DD00D06FD0010121B430D067
:10127000F76BE5C1F6F1F96B080EF86F00016CEC45
:1012800002F001C0E7F1010101C001F0040E0224E7
:10129000036E01C0E7F1E86FF76BE5C1F6F1F96B9A
:1012A000080EF86F00016CEC02F0010101C0E9FFCB
:1012B000040E0224EA6EEF50430BE8C1EAFFE7C1D7
:1012C000E9FFEF6EE5C1E7F10001B9DE3DD00101B4
:1012D000F76BE5C1F6F1F96B080EF86F00016CECE5
:1012E00002F002C0E8F101C0E7F1040E0101E727B6
:1012F000000EE823E7C101F0040EE825036EE7C104
:10130000E7F1E86FF76BE5C1F6F1F96B080EF86FDE
:1013100000016CEC02F002C0EAF101C0E9F1040E38
:101320000101E927000EEA23E9C1E9FF040EEA25DD
:10133000EA6EEF50430BE8C1EAFFE7C1E9FFEF6E49
:10134000E5C1E7F1000106DF01010001E1EF09F06D
:10135000A19A225201E13ED068523CE068A404D038
:1013600069A402D021EF02F06DA201D033D068AAA7
:1013700004D069AA02D039EF02F068A204D069A2B1
:1013800002D040EF02F068A004D069A002D0EBEFD9
:1013900002F068A804D069A802D000EF03F068AC9E
:1013A00004D069AC02D005EF03F00101E46B68A63C
:1013B0000AD069A608D06CCF21F0000102EC00F041
:1013C000E2D602D0010105D00101E451E42B03086B
:1013D000EEE2000130EF00F06D6A696A080E6F6E90
:1013E000945030090101946E226A196AF2BE198E76
:1013F000F29E0001D5EC02F019BEF28E01EF0AF068
:10140000EBD726EF0AF0196AF2BE198EF29ED5ECE0
:1014100002F019BEF28E6D6A140E6F6E696A6D86E7
:10142000010E226E17EF0AF06DB601D0ECD7222C18
:101430000BD06DBA09D0686A696AA08AC00EF21230
:10144000110E696E020E226E000CDAD7EDDF22500B
:101450000208FCE1DCEF0EF0010E0101CC6FCC6F55
:10146000CC5110080CE3010ECC5D036A670FE96EE6
:10147000010E0320EA6ECCC1EFFFCC2BF1D70001A7
:10148000E1EF0EF01B50016EE5EF0EF07AB101D0E6
:10149000FDD77C517C2BA00FE96E040EEA6ED8B00C
:1014A000EA2AEFCFCEF1010100017B517C5D07E319
:1014B000196AF2BE198EF29EACDD19BEF28E0101E0
:1014C000CEC101F00001000CFF0E0101D06F300E03
:1014D000CF5DE90F44E2170F0001B3EF0AF00101FD
:1014E000D06B3DD0010E0101D06F39D0020E010149
:1014F000D06F35D0030E0101D06F31D0040E010141
:10150000D06F2DD0050E0101D06F29D0060E01013C
:10151000D06F25D0070E0101D06F21D0080E010138
:10152000D06F1DD0090E0101D06F19D00A0E010134
:10153000D06F15D00B0E0101D06F11D00C0E010130
:10154000D06F0DD00D0E0101D06F09D00E0E01012C
:10155000D06F05D00F0E0101D06F01D00101D0C1B5
:1015600001F00001000CE824F76AF736810FF66EEF
:10157000150EF7220A00F550FA6E0800F550F96EC4
:10158000DE14E414EC14F414FC1404150C151415F6
:101590001C1524155C155C155C155C155C155C153B
:1015A0005C152C1534153C1544154C1554150101CA
:1015B000D291F2BED281F29E000179513E0802E240
:1015C0003E0E796F7951792B036A3A0FE96E000E5E
:1015D0000320EA6ED1C1EFFFF29E0101D2B1F28E7B
:1015E0000001F6EF0AF0D0C1D1F1E1D7196AF2BEDD
:1015F000198EF29E020E0101F56F0001F9EC06F062
:1016000019BEF28E015207E0196AF2BE198EF29EDF
:101610008BDD19BEF28E29EF0BF079513E0816E2F0
:10162000196AF2BE198EF29E020E0101F56F0001D9
:10163000F9EC06F019BEF28E015207E0196AF2BE0B
:10164000198EF29E71DD19BEF28EE7D7CFC1D0F1AF
:10165000CAD7000C0101CEBF11D00F0E006ECD39DC
:1016600000160A0E005C03E2300E002602D0CE51B6
:10167000002600C0CFF10001D0DF01010F0ECD1711
:101680000A0ECD5D02E2300E02D0CE9FCE51CD27A4
:10169000CDC1CFF10001C1DF000C0101CC6BCC51F9
:1016A000030874E3CC51040DF350036AB70F016EC5
:1016B000000E032203C0D4F1CC51040DF350036A91
:1016C000670FE96E010E0320EA6EEFCFD5F1D4C1AA
:1016D000EAFF01C0E9FFD5C1EFFFCC51040DF35083
:1016E000010F036AB70F016E000E032203C0D4F18D
:1016F000CC51040DF350010F036A670FE96E010E20
:101700000320EA6EEFCFD5F1D4C1EAFF01C0E9FFB3
:10171000D5C1EFFFCC51040DF350020F036AB70F90
:10172000016E000E032203C0D4F1CC51040DF3501E
:10173000020F036A670FE96E010E0320EA6EEFCF16
:10174000D5F1D4C1EAFF01C0E9FFD5C1EFFFCC510B
:10175000040DF350030F036AB70F016E000E03224E
:1017600003C0D4F1CC51040DF350030F036A670F8B
:10177000E96E010E0320EA6EEFCFD5F1D4C1EAFF86
:1017800001C0E9FFD5C1EFFFCC2B89D7CC512B0885
:10179000D8A0CFD0CD6BCD5103081DE3036ACD5146
:1017A000CE0F016E010E032203C0D4F1010ECC5DF9
:1017B000040DF350CD25036AB70FE96E000E032028
:1017C000EA6EEFCFD5F1D4C1EAFF01C0E9FFD5C180
:1017D000EFFFCD2BE0D7CC51030B37E1CEC1D2F1D7
:1017E000CFC1CEF1D0C1CFF1D1C1D0F1D2C1D1F1B1
:1017F000036ACE51000111EC01F0E8CFCEF1036A8B
:101800000101CF51000111EC01F0E8CFCFF1036AE3
:101810000101D051000111EC01F0E8CFD0F1036AD1
:101820000101D151000111EC01F0E8CFD1F101012A
:10183000CC31006E00323F0E00160050036A0001EA
:1018400099EC01F00101CE1B00D0CC51040DF350F6
:10185000036AB70F016E000E032203C0D4F1040E19
:10186000CC5D040DF350036AB70FE96E000E032040
:10187000EA6EEF50CE19D4C1EAFF01C0E9FFEF6E66
:10188000CC51040DF350010F036AB70F016E000E27
:10189000032203C0D4F1040ECC5D040DF350010FFC
:1018A000036AB70FE96E000E0320EA6EEF50CF19FE
:1018B000D4C1EAFF01C0E9FFEF6ECC51040DF35033
:1018C000020F036AB70F016E000E032203C0D4F1AA
:1018D000040ECC5D040DF350020F036AB70FE96EDE
:1018E000000E0320EA6EEF50D019D4C1EAFF01C008
:1018F000E9FFEF6ECC51040DF350030F036AB70FED
:10190000016E000E032203C0D4F1040ECC5D040D61
:10191000F350030F036AB70FE96E000E0320EA6E5F
:10192000EF50D119D4C1EAFF01C0E9FFEF6ECC2B13
:101930002DD700018AEF0FF00101D06BD0510308C1
:1019400038E3D16BD151030832E3D151040DF35088
:10195000D36BD26F036AD051D225016ED3510322CB
:101960000150A70F016E000E032203C0D3F103C084
:10197000EAFF01C0E9FFEFCFD4F1CF51040DF350DE
:10198000040DF3CFD5F1D051040DF350D525D12559
:10199000036AB70FE96E000E0320EA6EEF50D41908
:1019A000D3C1EAFF01C0E9FFEF6ED12BCBD7D02B1B
:1019B000C5D70001000C0101CF6BCF51030838E3FC
:1019C000D06BD051030832E3CF51040DF350D26BEA
:1019D000D16F036AD051D125016ED251032201503B
:1019E000A70F016E000E032201C0D1F103C0D2F196
:1019F000CF51040DF350D46BD36F036AD051D3256C
:101A0000016ED45103220150A70FE96E000E03208E
:101A1000EA6E036AEF50000111EC01F0D2C1EAFF57
:101A2000D1C1E9FFEF6E0101D02BCBD7CF2BC5D7AA
:101A30000001000CABC0CFF1ACC0ABF0ADC0ACF05E
:101A4000AEC0ADF0CFC1AEF0AFC0CFF1B1C0AFF01E
:101A5000CFC1B1F0B0C0CFF1B2C0B0F0CFC1B2F0E1
:101A6000B3C0CFF1B6C0B3F0B5C0B6F0B4C0B5F0F6
:101A7000CFC1B4F0000C0101CF6BCF510308D8A047
:101A8000CBD0036ACF51A70FE96E000E0320EA6E98
:101A9000EFCFD2F1036ACF51A70FE96E000E0320FA
:101AA000EA6EEFCFD3F1036ACF51AB0FE96E000EB0
:101AB0000320EA6EEF50D31B036ACF51AF0FE96EDC
:101AC000000E0320EA6EEF50D31B036ACF51B30F11
:101AD000E96E000E0320EA6EEF50D319D06F036A4F
:101AE000CF51A70FE96E000E0320EA6EEFCFD3F1BE
:101AF000036ACF51AB0FE96E000E0320EA6EEF5080
:101B0000D319D16FD890D135D36F006AD1BF00807F
:101B100000501B0DF350D319D16F036ACF51A70F9B
:101B2000E96E000E0320EA6ED151D019EF18EF6E66
:101B3000036ACF51AB0FE96E000E0320EA6EEFCFC0
:101B4000D3F1036ACF51AF0FE96E000E0320EA6EA6
:101B5000EF50D319D16FD890D135D36F006AD1BF70
:101B6000008000501B0DF350D319D16F036ACF5181
:101B7000AB0FE96E000E0320EA6ED151D019EF18B9
:101B8000EF6E036ACF51AF0FE96E000E0320EA6ECD
:101B9000EFCFD3F1036ACF51B30FE96E000E0320EC
:101BA000EA6EEF50D319D16FD890D135D36F006A58
:101BB000D1BF008000501B0DF350D319D16F036AC1
:101BC000CF51AF0FE96E000E0320EA6ED151D0194C
:101BD000EF18EF6E036ACF51B30FE96E000E0320CA
:101BE000EA6EEF50D219D16FD890D135D36F006A19
:101BF000D1BF008000501B0DF350D319D16F036A81
:101C0000CF51B30FE96E000E0320EA6ED151D01907
:101C1000EF18EF6ECF2B31D7000156EF0EF0010118
:101C2000CE6BCC6BCC5103082CE3CD6BCD510308AC
:101C300026E3CD51040DF350D06BCF6F036ACC5126
:101C4000CF25016ED05103220150A70F016E000E67
:101C5000032203C0D0F1CC51040DF350CD25036A0B
:101C6000870FE96E000E0320EA6EEFCFD1F1D0C1ED
:101C7000EAFF01C0E9FFD1C1EFFFCD2BD7D7CC2BB5
:101C8000D1D793908A80CF6B000156DE010E0101FF
:101C9000CE6FCE51090810E300018DDE0101CE2D7B
:101CA00002D093908A900001C5DEE5D6CEC1CFF177
:101CB00043DE0101CE2BEDD700017DDEBBDE0A0E37
:101CC0000101CF6F000138DE0101CC6BCC5103085C
:101CD0002EE3CD6BCD51030828E3CC51040DF35016
:101CE000CD25036A970F016E000E032201C0CFF1CC
:101CF00003C0D0F1CD51040DF350D26BD16F036A04
:101D0000CC51D125016ED25103220150A70FE96EAB
:101D1000000E0320EA6EEFCFD1F1D0C1EAFFCFC1B0
:101D2000E9FFD1C1EFFFCD2BD5D7CC2BCFD7000109
:101D30008BEF0FF0010EEA6ECC0EE96EEF500EE065
:101D40000F0E016E006A002EFED7012EFBD78F0EFC
:101D5000006E002EFED70000EF2EF2D7000CF86ABE
:101D6000D09E078EEA6AE96A226A266A796B806BDE
:101D7000C150C00B0F09C16E070EB46E1E6A040E6F
:101D80001F6E0C0E206E816B826B876B886B896B6C
:101D90008A6B8B6B8C6B8D6B8E6B8F6B906B916B7F
:101DA000926B936B946B956B966B01019B6B00012F
:101DB000C4EC02F025EF0AF07DB101D0FDD72CEF85
:101DC0000AF014EC0AF042EF0AF00152D8B4C5D080
:101DD00001019A6B9A511F0829E3036A9A51770F00
:101DE000016E010E032201C09CF103C09DF10001B0
:101DF00046EC0AF09DC1EAFF9CC1E9FF01C0EFFF7C
:101E0000036A01019A51770FE96E010E0320EA6E11
:101E1000EF50790809E100017AA105D046EC0AF0FB
:101E200001C09BF1F9D701019A2BD4D7036A9A51CB
:101E3000770FE96E010E0320EA6EEF6A9A6B9A51F2
:101E40000F0836E3D8909A35036A770FE96E010ED2
:101E50000320EA6EEFCF98F1D8909A35010F036A0C
:101E6000770FE96E010E0320EA6EEFCF99F1036A56
:101E70009A51870F016E000E032201C09CF103C02E
:101E80009DF199C1CFF1000164EC0AF001C09EF10F
:101E900098C1CFF164EC0AF00150100DF35001012C
:101EA0009E259DC1EAFF9CC1E9FFEF6E9A2BC7D723
:101EB0009A6B9A510F0813E3036A9A51870FE96EE0
:101EC000000E0320EA6EEFCF9CF19CC1CDF1370EDE
:101ED000CE6F00012AEC0BF001019A2BEAD700012A
:101EE0007AA116D046EC0AF001C09BF101019B518A
:101EF0007A0802E117D00AD000017AA105D046EC99
:101F00000AF001C09BF1F9D701010CD00AD0000101
:101F10004DEF0BF084D6050E0101CC6F00010ADFF6
:101F20000101DDD79A6B9A510F0813E3036A9A51A6
:101F3000970FE96E000E0320EA6EEFCF9CF19CC173
:101F4000CDF1370ECE6F00012AEC0BF001019A2B78
:0E1F5000EAD7050ECC6F0001EDDE33D703009B
:020000040030CA
:0E00000021CE181E000781000FC00FE00F4038
:00000001FF
;PIC18F2550
;CRC=EF33  CREATED="26-Dec-15 15:08"
