:100000001AEF05F0F76A140FF66E000EF7220900DA
:10001000F5501200637C777BF26B6FC53001672B64
:10002000FED7AB76CA82C97DFA5947F0ADD4A2AFEC
:100030009CA472C0B7FD9326363FF7CC34A5E5F1FA
:1000400071D8311504C723C31896059A071280E2A8
:10005000EB27B27509832C1A1B6E5AA0523BD6B3FC
:1000600029E32F8453D100ED20FCB15B6ACBBE396C
:100070004A4C58CFD0EFAAFB434D338545F9027F58
:10008000503C9FA851A3408F929D38F5BCB6DA2111
:1000900010FFF3D2CD0C13EC5F974417C4A77E3D3D
:1000A000645D197360814FDC222A908846EEB81493
:1000B000DE5E0BDBE0323A0A4906245CC2D3AC6256
:1000C0009195E479E7C8376D8DD54EA96C56F4EA61
:1000D000657AAE08BA78252E1CA6B4C6E8DD741F72
:1000E0004BBD8B8A703EB5664803F60E613557B935
:1000F00086C11D9EE1F8981169D98E949B1E87E9EF
:10010000CE5528DF8CA1890DBFE6426841992D0F9D
:10011000B054BB16F76A240FF66E010EF7220900E1
:10012000F55012008D01020408102040801B366C2F
:10013000D8AB4D9A2F5EBC63C697356AD4B37DFAAF
:10014000EFC5913972E4D3BD61C29F254A943366ED
:10015000CC831D3A74E8CB8D010204081020408046
:100160001B366CD8AB4D9A2F5EBC63C697356AD4EC
:10017000B37DFAEFC5913972E4D3BD61C29F254AC0
:10018000943366CC831D3A74E8CB8D0102040810C9
:100190002040801B366CD8AB4D9A2F5EBC63C6974F
:1001A000356AD4B37DFAEFC5913972E4D3BD61C22B
:1001B0009F254A943366CC831D3A74E8CB8D0102A7
:1001C0000408102040801B366CD8AB4D9A2F5EBCC3
:1001D00063C697356AD4B37DFAEFC5913972E4D31B
:1001E000BD61C29F254A943366CC831D3A74E8CB27
:1001F0008D01020408102040801B366CD8AB4D9A4C
:100200002F5EBC63C697356AD4B37DFAEFC59139CA
:1002100072E4D3BD61C29F254A943366CC831D3AF4
:1002200074E8CB00010E01014F6F4F6F4F51100862
:100230000CE3010E4F5D036AEA0FE96E000E032026
:10024000EA6E4FC1EFFF4F2BF1D7000144EF05F0ED
:10025000FF0E0101536F300E525DE90F44E2170F9C
:10026000000177EF01F00101536B3DD0010E010158
:10027000536F39D0020E0101536F35D0030E0101C7
:10028000536F31D0040E0101536F2DD0050E0101C3
:10029000536F29D0060E0101536F25D0070E0101BF
:1002A000536F21D0080E0101536F1DD0090E0101BB
:1002B000536F19D00A0E0101536F15D00B0E0101B7
:1002C000536F11D00C0E0101536F0DD00D0E0101B3
:1002D000536F09D00E0E0101536F05D00F0E0101AF
:1002E000536F01D0010153C101F00001000CE8245B
:1002F000F76AF736090FF66E030EF7220A00F5507B
:10030000FA6E0800F550F96E66026C0274027C0207
:1003100084028C0294029C02A402AC02E402E40275
:10032000E402E402E402E402E402B402BC02C40215
:10033000CC02D402DC02010151BF10D00F0E006EBE
:10034000503900160A0E005C03E2300E002602D07F
:100350005151002600509EA8FED7AD6E0F0E5017CB
:100360000A0E505D02E2300E02D0519F51515027CB
:1003700050519EA8FED7AD6E0001000C01014F6BDD
:100380004F51030874E34F51040DF350036A3A0FC1
:10039000016E000E032203C057F14F51040DF350BC
:1003A000036AEA0FE96E000E0320EA6EEFCF58F100
:1003B00057C1EAFF01C0E9FF58C1EFFF4F51040DDB
:1003C000F350010F036A3A0F016E000E032203C0BF
:1003D00057F14F51040DF350010F036AEA0FE96E14
:1003E000000E0320EA6EEFCF58F157C1EAFF01C0BB
:1003F000E9FF58C1EFFF4F51040DF350020F036A9C
:100400003A0F016E000E032203C057F14F51040D45
:10041000F350020F036AEA0FE96E000E0320EA6E42
:10042000EFCF58F157C1EAFF01C0E9FF58C1EFFF14
:100430004F51040DF350030F036A3A0F016E000E83
:10044000032203C057F14F51040DF350030F036A09
:10045000EA0FE96E000E0320EA6EEFCF58F157C1A4
:10046000EAFF01C0E9FF58C1EFFF4F2B89D74F5179
:100470002B08D8A0CAD0506B505103081DE3036A63
:100480005051510F016E010E032203C057F1010EAE
:100490004F5D040DF3505025036A3A0FE96E000ECC
:1004A0000320EA6EEFCF58F157C1EAFF01C0E9FF20
:1004B00058C1EFFF502BE0D74F51030B32E151C130
:1004C00055F152C151F153C152F154C153F155C1CB
:1004D00054F1036A5151000195DDE8CF51F1036AEF
:1004E0000101525100018EDDE8CF52F1036A010192
:1004F0005351000187DDE8CF53F1036A01015451E4
:10050000000180DDE8CF54F101014F31006E00326F
:100510003F0E00160050036A0001FCDD0101511B73
:1005200000D04F51040DF350036A3A0F016E000ED4
:10053000032203C057F1040E4F5D040DF350036A0C
:100540003A0FE96E000E0320EA6EEF50511957C1C1
:10055000EAFF01C0E9FFEF6E4F51040DF350010FA8
:10056000036A3A0F016E000E032203C057F1040E16
:100570004F5D040DF350010F036A3A0FE96E000E50
:100580000320EA6EEF50521957C1EAFF01C0E9FF9C
:10059000EF6E4F51040DF350020F036A3A0F016ED4
:1005A000000E032203C057F1040E4F5D040DF350FB
:1005B000020F036A3A0FE96E000E0320EA6EEF5055
:1005C000531957C1EAFF01C0E9FFEF6E4F51040D07
:1005D000F350030F036A3A0F016E000E032203C0AB
:1005E00057F1040E4F5D040DF350030F036A3A0FE9
:1005F000E96E000E0320EA6EEF50541957C1EAFF6E
:1006000001C0E9FFEF6E4F2B32D70001D7EF05F0A5
:100610000101536B5351030838E3546B54510308E1
:1006200032E35451040DF350566B556F036A535126
:100630005525016E5651032201502A0F016E000EFE
:10064000032203C056F103C0EAFF01C0E9FFEFCF68
:1006500057F15251040DF350040DF3CF58F153519B
:10066000040DF35058255425036A3A0FE96E000E25
:100670000320EA6EEF50571956C1EAFF01C0E9FFA7
:10068000EF6E542BCBD7532BC5D70001000C0101C3
:10069000526B5251030837E3536B5351030831E354
:1006A0005251040DF350556B546F036A5351542546
:1006B000016E5551032201502A0F016E000E0322D4
:1006C00001C054F103C055F15251040DF350576B62
:1006D000566F036A53515625016E5751032201503C
:1006E0002A0FE96E000E0320EA6E036AEF50000144
:1006F00089DC55C1EAFF54C1E9FFEF6E0101532BBC
:10070000CCD7522BC6D70001000C2EC052F12FC0FF
:100710002EF030C02FF031C030F052C131F032C075
:1007200052F134C032F052C134F033C052F135C00E
:1007300033F052C135F036C052F139C036F038C00E
:1007400039F037C038F052C137F0000C0101526B5C
:1007500052510308D8A0CBD0036A52512A0FE96E38
:10076000000E0320EA6EEFCF55F1036A52512A0FB3
:10077000E96E000E0320EA6EEFCF56F1036A525184
:100780002E0FE96E000E0320EA6EEF50561B036A2F
:100790005251320FE96E000E0320EA6EEF50561BE5
:1007A000036A5251360FE96E000E0320EA6EEF50D5
:1007B0005619536F036A52512A0FE96E000E032037
:1007C000EA6EEFCF56F1036A52512E0FE96E000E1A
:1007D0000320EA6EEF505619546FD8905435566F77
:1007E000006A54BF008000501B0DF3505619546F1F
:1007F000036A52512A0FE96E000E0320EA6E54512B
:100800005319EF18EF6E036A52512E0FE96E000E66
:100810000320EA6EEFCF56F1036A5251320FE96EB0
:10082000000E0320EA6EEF505619546FD8905435DD
:10083000566F006A54BF008000501B0DF3505619CC
:10084000546F036A52512E0FE96E000E0320EA6EB8
:1008500054515319EF18EF6E036A5251320FE96E7B
:10086000000E0320EA6EEFCF56F1036A5251360FA5
:10087000E96E000E0320EA6EEF505619546FD890BF
:100880005435566F006A54BF008000501B0DF35062
:100890005619546F036A5251320FE96E000E03204D
:1008A000EA6E54515319EF18EF6E036A5251360F26
:1008B000E96E000E0320EA6EEF505519546FD89080
:1008C0005435566F006A54BF008000501B0DF35022
:1008D0005619546F036A5251360FE96E000E032009
:1008E000EA6E54515319EF18EF6E522B31D70001B5
:1008F000C1EF04F00101516B4F6B4F5103082CE322
:10090000506B5051030826E35051040DF350536BC4
:10091000526F036A4F515225016E53510322015009
:100920002A0F016E000E032203C053F14F51040D34
:10093000F3505025036A0A0FE96E000E0320EA6E99
:10094000EFCF54F153C1EAFF01C0E9FF54C1EFFFFB
:10095000502BD7D74F2BD1D793908A80526B000161
:1009600057DE010E0101516F5151090810E30001DA
:100970008EDE0101512D02D093908A900001C5DED8
:10098000E5D651C152F144DE0101512BEDD70001F2
:100990007EDEBBDE0A0E0101526F000139DE01016D
:1009A0004F6B4F5103082EE3506B5051030828E35F
:1009B0004F51040DF3505025036A1A0F016E000EBB
:1009C000032201C052F103C053F15051040DF35002
:1009D000556B546F036A4F515425016E55510322D4
:1009E00001502A0FE96E000E0320EA6EEFCF54F19A
:1009F00053C1EAFF52C1E9FF54C1EFFF502BD5D7D5
:100A00004F2BCFD70001D8EF05F0010EEA6E4F0E45
:100A1000E96EEF500EE00F0E016E006A002EFED759
:100A2000012EFBD78F0E006E002EFED70000EF2E9A
:100A3000F2D7000CF86AD09EEA6AE96AB886E10E3D
:100A4000AF6E040EB06EA60EAC6E900EAB6EC150C3
:100A5000C00B0F09C16E070EB46E046A056A0A6AFC
:100A60000B6A0C6A0D6A0E6A0F6A106A116A126AC2
:100A7000136A146A156A166A176A186A196A0101F4
:100A80001E6B000112EF01F001011D6B1D511F08CB
:100A90001EE3036A1D51FA0FE96E000E0320EA6E91
:100AA0009EAAFED7AECFEFFF036A1D51FA0FE96E83
:100AB000000E0320EA6EEF50790807E19EAA05D0E8
:100AC0009EAAFED7AECF1EF1F9D71D2BDFD7036A42
:100AD0001D51FA0FE96E000E0320EA6EEF6A1D6BDE
:100AE0001D510F0836E3D8901D35036AFA0FE96EE1
:100AF000000E0320EA6EEFCF1BF1D8901D35010FD9
:100B0000036AFA0FE96E000E0320EA6EEFCF1CF1C4
:100B1000036A1D510A0F016E000E032201C01FF16E
:100B200003C020F11CC152F1000128EC01F001C00A
:100B300021F11BC152F128EC01F00150100DF350CE
:100B40000101212520C1EAFF1FC1E9FFEF6E1D2B26
:100B5000C7D71D6B1D510F0813E3036A1D510A0F00
:100B6000E96E000E0320EA6EEFCF1FF11FC150F1B6
:100B7000370E516F00019BEC01F001011D2BEAD7EC
:100B80009EAA12D09EAAFED7AECF1EF11E517A08A1
:100B900002E115D008D09EAA05D09EAAFED7AECFFE
:100BA0001EF1F9D70CD00AD00001BEEF01F0A2D699
:100BB000050E01014F6F000128DF0101E1D71D6B18
:100BC0001D510F0813E3036A1D511A0FE96E000E41
:100BD0000320EA6EEFCF1FF11FC150F1370E516FA6
:100BE00000019BEC01F001011D2BEAD7050E4F6FB0
:080BF00000010BDF49D70300EF
:020000040030CA
:0E00000021CE181E000781000FC00FE00F4038
:00000001FF
;PIC18F2550
;CRC=26BC  CREATED="26-Dec-15 11:59"
