:1000000069EF04F0080E2B6E070E2C6E060E2D6E97
:10001000050E2E6E040E2F6E030E306E020E316E24
:10002000010E326E040E336E030E346E020E356E08
:10003000050E366E010E376E386E020E396E030EE7
:100040003A6E82EF04F062BF10D00F0E006E61397D
:1000500000160A0E005C03E2300E002602D0625148
:10006000002600509EA8FED7AD6E0F0E61170A0E37
:10007000615D02E2300E02D0629F625161276151E0
:100080009EA8FED7AD6E000CFF0E646F300E635D50
:10009000E90F32E2170F7FEF00F0646B2DD0010EF5
:1000A000646F2AD0020E646F27D0030E646F24D0D1
:1000B000040E646F21D0050E646F1ED0060E646FAF
:1000C0001BD0070E646F18D0080E646F15D0090E90
:1000D000646F12D00A0E646F0FD00B0E646F0CD0D9
:1000E0000C0E646F09D00D0E646F06D00E0E646F97
:1000F00003D00F0E646F00D064C001F0000CE82440
:10010000F76AF736190FF66E010EF7220A00F5505E
:10011000FA6E0800F550F96E9A009E00A400AA003D
:10012000B000B600BC00C200C800CE00F800F80065
:10013000F800F800F800F800F800D400DA00E00059
:10014000E600EC00F2009C319E6F9E339E331F0E42
:100150009E179C51070B9F6F9D6B9E519D5D0AE200
:10016000036A9D519825E96E99510320EA6EEF6A62
:100170009D2BF3D79EC09DF09D5107081AE3036A9B
:100180009D519825016E9951032203C0A9F09E51FB
:100190009D5D036A9A25E96E9B510320EA6EEFCFBD
:1001A000AAF0A9C0EAFF01C0E9FFAAC0EFFF9D2B9A
:1001B000E3D79D6B9D51070819E3036A9D51A00F7A
:1001C000016E000E032203C0A9F0036A9D51982519
:1001D000E96E99510320EA6EEFCFAAF0A9C0EAFFB9
:1001E00001C0E9FFAAC0EFFF9D2BE4D79F5362E057
:1001F0009EC09DF09D5107085DE39E519D5D21E1EC
:10020000036A9D519825016E9951032201C0A8F0FF
:1002100003C0A9F0036A9D51A00FE96E000E0320F0
:10022000EA6EEFCF00F09F51016E04E0D8900032EB
:10023000012EFCD70050A9C0EAFFA8C0E9FFEF6E6D
:1002400037D0036A9D519825016E9951032201C050
:10025000A8F003C0A9F0036A9D51A00FE96E000E3B
:100260000320EA6EEFCFAAF09F51016E04E0D89010
:10027000AA33012EFCD7010E9D5D036AA00FE96E23
:10028000000E0320EA6EEFCFABF0080ED8809F552A
:10029000016EAB51006E015204E0D8900036012E81
:1002A000FCD70050AA11A9C0EAFFA8C0E9FFEF6E71
:1002B0009D2BA0D7000C9C319E6F9E339E331F0E4A
:1002C0009E179C51070B9F6F9D6B9E519D5D0CE28D
:1002D000070ED8809D55036A9825E96E9951032031
:1002E000EA6EEF6A9D2BF1D79EC09DF09D510708E5
:1002F0001EE3070ED8809D55036A9825016E99511B
:10030000032203C0A9F0070ED8809D559E25036ADD
:100310009A25E96E9B510320EA6EEFCFAAF0A9C09F
:10032000EAFF01C0E9FFAAC0EFFF9D2BDFD79D6B5D
:100330009D51070819E3036A9D51A00F016E000E3D
:10034000032203C0A9F0036A9D519825E96E9951D3
:100350000320EA6EEFCFAAF0A9C0EAFF01C0E9FFCF
:10036000AAC0EFFF9D2BE4D79F536BE09EC09DF08A
:100370009D51070866E39E519D5D25E1070ED880DB
:100380009D55036A9825016E9951032201C0A8F07A
:1003900003C0A9F0070ED8809D55036AA00FE96E2F
:1003A000000E0320EA6EEFCF00F09F51016E04E0D3
:1003B000D8900036012EFCD70050A9C0EAFFA8C093
:1003C000E9FFEF6E3CD0070ED8809D55036A982553
:1003D000016E9951032201C0A8F003C0A9F0070ED5
:1003E000D8809D55036AA00FE96E000E0320EA6EC7
:1003F000EFCFAAF09F51016E04E0D890AA37012EEA
:10040000FCD7080ED8809D55036AA00FE96E000E38
:100410000320EA6EEFCFABF0080ED8809F55016E37
:10042000AB51006E015204E0D8900032012EFCD78F
:100430000050AA11A9C0EAFFA8C0E9FFEF6E9D2BEA
:1004400097D7000C9D6B9D6B9D51070821E3036AB4
:100450009D519725016E9851032203C09FF0036AB6
:100460009D519925E96E9A510320EA6EEFCFA0F0D5
:10047000036A9D519B25E96E9C510320EA6EEF5063
:10048000A0119FC0EAFF01C0E9FFEF6E9D2BDCD7F2
:10049000000C996B870E986F85C09BF084C09AF012
:1004A00086C09CF050DE400ED8808655976F996BC1
:1004B0008F0E986F85C09BF084C09AF097C09CF017
:1004C000FADE83C098F082C097F09A6B870E996F1E
:1004D0009C6B8F0E9B6FB6DF000C866B86510708F6
:1004E00019E3036A86518225016E8351032203C0FA
:1004F00088F0036A86518425E96E85510320EA6EEF
:10050000EFCF89F088C0EAFF01C0E9FF89C0EFFFA3
:10051000862BE4D7000C896B886B8851070842E36F
:10052000070ED8808855036A8425E96E855103201B
:10053000EA6EEF50916B906B8F6B8E6F070ED880C9
:100540008855036A8625E96E87510320EA6EEFCF4E
:1005500000F0016A026A036A00508E2701508F235F
:100560000250902303509123016A026A036A895161
:100570008E258A6F01508F218B6F025090218C6FD6
:10058000035091218D6F070ED8808855036A82250C
:10059000E96E83510320EA6E8AC0EFFF8BC089F0B9
:1005A000882BBBD7000C886B886B8851070821E328
:1005B000036A88518225016E8351032203C08AF0A9
:1005C000036A88518425E96E85510320EA6EEFCFD6
:1005D0008BF0036A88518625E96E87510320EA6E05
:1005E000EF508B198AC0EAFF01C0E9FFEF6E882B3C
:1005F000DCD7000C996B870E986F85C09BF084C088
:100600009AF086C09CF057DE400ED8808655976FD2
:10061000996B8F0E986F85C09BF084C09AF097C03D
:100620009CF091DD83C098F082C097F09A6B870EA2
:10063000996F9C6B8F0E9B6F05DF000CEA6A820E30
:10064000E96EEF500EE00F0E016E006A002EFED72D
:10065000012EFBD78F0E006E002EFED70000EF2E6E
:10066000F2D7000C606B605107085EE3036A6051CB
:10067000690F016E000E032203C083F0036A60510C
:10068000330FE96E000E0320EA6EEFCF84F083C0D3
:10069000EAFF01C0E9FF84C0EFFF036A6051710FF8
:1006A000016E000E032203C083F0036A60512B0F1A
:1006B000E96E000E0320EA6EEFCF84F083C0EAFFFC
:1006C00001C0E9FF84C0EFFF036A60511B0F016E98
:1006D000000E032203C083F0036A60510B0FE96E22
:1006E000000E0320EA6EEFCF84F083C0EAFF01C062
:1006F000E9FF84C0EFFF036A6051230F016E000E13
:10070000032203C083F0036A6051130FE96E000EE9
:100710000320EA6EEFCF84F083C0EAFF01C0E9FF57
:1007200084C0EFFF602B9FD7606B60511F08D8A07B
:10073000CED0836B610E826F856B230E846F080EA3
:10074000866FA7DE836B230E826F856B610E846FCD
:10075000C4DE836B610E826F856B230E846F876BA3
:100760001B0E866FD8DE836B230E826F856B610E46
:10077000846FB3DE836B610E826F856B230E846F93
:10078000876B710E866F0FDF836B230E826F856B15
:10079000610E846FA2DE836B610E826F856B1B0E10
:1007A000846F030E866F26DF836B1B0E826F856B53
:1007B000610E846F92DE010E826F40DF605302E1B2
:1007C00093908A80602D02D093928A82836B610E0F
:1007D000826F856B230E846F876B1B0E866FE3DE43
:1007E000605302E193908A90602D02D093928A9296
:1007F000010E826F23DF836B1B0E826F856B610E90
:10080000846F6BDE836B610E826F856B690E846F04
:10081000080E866F3EDE836B690E826F856B610EFC
:10082000846F5BDE836B610E826F856B690E846FF4
:10083000876B710E866F6FDE836B690E826F856BBF
:10084000610E846F4ADE796B795106080AE3036A08
:1008500079517A0FE96E000E0320EA6EEF6A792B68
:10086000F3D760C081F0836B610E826F856B690E78
:10087000846F876B7A0E866F96DE836B690E826F4C
:10088000856B610E846F29DE836B610E826F856BD1
:10089000710E846F030E866FADDE836B710E826FF7
:1008A000856B610E846F19DE836B610E826F856BC1
:1008B000690E846F876B710E866F75DE836B710EA8
:1008C000826F856B610E846F08DE602B2ED76FEF11
:1008D00005F0F86AD09EEA6AE96AB886E10EAF6E62
:1008E000040EB06EA60EAC6E900EAB6E0A6AC150CE
:1008F000C00B0F09C16E070EB46E046A056A5F6A09
:1009000002EF00F05E6A5E501F081EE3036A5E504D
:100910003B0FE96E000E0320EA6E9EAAFED7AECF13
:10092000EFFF036A5E503B0FE96E000E0320EA6E94
:10093000EF50790807E19EAA05D09EAAFED7AECF58
:100940005FF0F9D75E2ADFD7036A5E503B0FE96E8E
:10095000000E0320EA6EEF6A5E6A5E50070811E33C
:10096000036A5E502B0FE96E000E0320EA6EEFCF94
:1009700060F060C061F0370E626F23EC00F05E2A19
:10098000ECD75E6A5E50070811E3036A5E50330FCE
:10099000E96E000E0320EA6EEFCF60F060C061F0F8
:1009A000370E626F23EC00F05E2AECD75E6A5E5071
:1009B0000F0856E3D8905E34036A3B0FE96E000ED1
:1009C0000320EA6EEFCF5CF0D8905E34010F036A2B
:1009D0003B0FE96E000E0320EA6EEFCF5DF05E5034
:1009E00007081EE3036A5E500B0F016E000E032220
:1009F00001C060F003C061F05DC063F044EC00F042
:100A000001C062F05CC063F044EC00F00150100DD6
:100A1000F350622561C0EAFF60C0E9FFEF6E1ED0AF
:100A2000080E5E5C036A130F016E000E032201C004
:100A300060F003C061F05DC063F044EC00F001C001
:100A400062F05CC063F044EC00F00150100DF35014
:100A5000622561C0EAFF60C0E9FFEF6E5E2AA7D79A
:100A60005E6A5E50070811E3036A5E500B0FE96E81
:100A7000000E0320EA6EEFCF60F060C061F0370E29
:100A8000626F23EC00F05E2AECD75E6A5E500708C6
:100A900011E3036A5E50130FE96E000E0320EA6E45
:100AA000EFCF60F060C061F0370E626F23EC00F0B2
:100AB0005E2AECD79EAA12D09EAAFED7AECF5FF0D8
:100AC0005F507A0802E10FD008D09EAA05D09EAAF6
:100AD000FED7AECF5FF0F9D706D004D0C3D5050E50
:100AE000826FACDDE7D75E6A5E50070811E3036AE8
:100AF0005E501B0FE96E000E0320EA6EEFCF60F030
:100B000060C061F0370E626F23EC00F05E2AECD714
:100B10005E6A5E50070811E3036A5E50230FE96EB8
:100B2000000E0320EA6EEFCF60F060C061F0370E78
:100B3000626F23EC00F05E2AECD7050E826F7EDD3B
:040B4000E1D60300F7
:020000040030CA
:0E00000021CE181E000781000FC00FE00F4038
:00000001FF
;PIC18F2550
;CRC=9E90  CREATED="05-Jan-16 15:00"
