:08000000680D0400000000007F
:1004000014202000344188003440200044418800FA
:1004100054602000544188007480200064418800AA
:10042000342020007441880014102000844188008A
:10043000542020009441880034402000A4418800CA
:1004400000000600F0CFB3007BE8B7007AC8BF0019
:100450000160EF000083B2001F0032001080B20084
:100460001F0032003080B200200032001080B20045
:10047000210032007080B200220032001080B200F1
:10048000230032003080B200240032001080B2001D
:1004900025003200F080B200260032001080B20049
:1004A000270032008087B200280032003080B2007E
:1004B000290032001080B2002A0032007080B200A1
:1004C0002B0032001080B2002C0032003080B200CD
:1004D0002D0032002F0037007B68EF002D00370021
:1004E00010C0B3007BE8B7002A00370020C0B3007B
:1004F0007BE8B7002700370030C0B3007BE8B700C7
:100500002400370040C0B3007BE8B700210037006B
:1005100050C0B3007BE8B7001E00370060C0B300D6
:100520007BE8B7001B00370070C0B3007BE8B70062
:100530001800370080C0B3007BE8B7001500370013
:1005400090C0B3007BE8B70012003700A0C0B30032
:100550007BE8B7000F003700B0C0B3007BE8B700FE
:100560000C003700C0C0B3007BE8B70009003700BB
:10057000D0C0B3007BE8B70006003700E0C0B3008E
:100580007BE8B70003003700F0C0B3007BE8B7009A
:10059000000037007BC8BF000160EF0000A0B7007B
:1005A00000000600851F7800861F78000001EB0020
:1005B0000103780064C110004211DD000200DD007B
:1005C000800278000C60EC000C60ED000D00320041
:1005D00005007800C42ADD004C00DE00F000B20007
:1005E0000003B000A20320000200E1000100390076
:1005F0000D40B4002322AF00FEFF37002011880019
:10060000F1FF37004F037800CF02780000000600AA
:10061000851F7800C500200007000900B51F78007D
:10062000000020007808B40080027800000020005C
:100630007A08B400104378000D60EF000700200036
:1006400008002000090020000640780013E0B700F1
:100650008044EB001160EF000044EB000F60EF00FE
:100660008043EB000D60EF000043EB001000200022
:100670007A08B400104578001560EF000B002000E8
:100680000C0020000D0020008A01780002002000EC
:10069000010020000000200000037300818373002C
:1006A0000204740083847400200020007A08B400DF
:1006B000104578001560EF000B0020000C002000B2
:1006C0000D0020000B40780007E0B70015C0BF0008
:1006D000804178000A40780005E0B7000041EB0057
:1006E0000360EF008040EB000160EF000040EB0092
:1006F0000003730081837300020474008384740018
:10070000300020007A08B400104578001560EF0032
:100710000B0020000C0020000D0020008B01780051
:100720000A0178000100200000002000000373008F
:1007300081837300020474008384740040002000ED
:100740007A08B400104578001560EF000B00200017
:100750000C0020000D0020000C40780007E0B700DE
:1007600017C0BF00804178000B40780005E0B7005B
:1007700015C0BF00004178000A40780003E0B700D0
:100780008040EB000160EF000040EB0000037300CD
:10079000818373000204740083847400500020007D
:1007A0007A08B400104578001560EF000B002000B7
:1007B0000C0020000D0020008C0178000B01780057
:1007C0008A0078000000200000037300818373001A
:1007D0000204740083847400600020007A08B4006E
:1007E000104578001560EF000B0020000C00200081
:1007F0000D0020000D40780007E0B70019C0BF00D1
:10080000804178000C40780005E0B70017C0BF00B9
:10081000004178000B40780003E0B70015C0BF002E
:10082000804078000A40780001E0B7000040EB000B
:1008300000037300818373000204740083847400D6
:10084000700020007A08B40000027800144078009C
:100850000160EF00010020000200200003002000E2
:1008600083817400020174008180730000007300B2
:100870000400200003000900B41A78008000200062
:100880007808B40080027800800020007A08B40064
:10089000104378000D60EF000700200008002000E2
:1008A000090020000640780013E0B7008044EB0008
:1008B0001160EF000044EB000F60EF008043EB009D
:1008C0000D60EF000043EB00900020007A08B400B8
:1008D000104578001560EF000B0020000C00200090
:1008E0000D0020008A017800020020000100200095
:1008F0000000200000037300818373000204740071
:1009000083847400A00020007A08B40010457800A9
:100910001560EF000B0020000C0020000D002000EF
:100920000B40780007E0B70015C0BF008041780099
:100930000A40780005E0B7000041EB000360EF00DB
:100940008040EB000160EF000040EB00000373000B
:10095000818373000204740083847400B00020005B
:100960007A08B400104578001560EF000B002000F5
:100970000C0020000D0020008B0178000A01780097
:100980000100200000002000000373008183730039
:100990000204740083847400C00020007A08B4004C
:1009A000104578001560EF000B0020000C002000BF
:1009B0000D0020000C40780007E0B70017C0BF0012
:1009C000804178000B40780005E0B70015C0BF00FB
:1009D000004178000A40780003E0B7008040EB0057
:1009E0000160EF000040EB0000037300818373009F
:1009F0000204740083847400D00020007A08B400DC
:100A0000104578001560EF000B0020000C0020005E
:100A10000D0020008C0178000B0178008A0078001E
:100A2000000020000003730081837300020474003F
:100A300083847400E00020007A08B4001045780038
:100A40001560EF000B0020000C0020000D002000BE
:100A50000D40780007E0B70019C0BF008041780062
:100A60000C40780005E0B70017C0BF0000417800D7
:100A70000B40780003E0B70015C0BF00804078004D
:100A80000A40780001E0B7000040EB00000373006B
:100A9000818373000204740083847400F0002000DA
:100AA0007A08B40000027800144078000160EF007A
:100AB0000100200002002000030020008381740058
:100AC00002017400818073000000730004002000A4
:100AD00003000900B41A7800A501200007000900EE
:100AE000CF127800CF027800000006007446800024
:100AF000C608F8003608F900C808F8003808F900F8
:100B0000CA08F8003A08F900CC08F8003C08F900D7
:100B10000402E8000402E900050032003C28D50088
:100B20003AA8D70038A8D70036A8D700F9FF370071
:100B30000000060074468000C608F8003608F90078
:100B4000C808F8003808F900CA08F8003A08F9009F
:100B5000CC08F8003C08F9000402E8000402E900AF
:100B6000050032003628D40038A8D6003AA8D600AE
:100B70003CA8D600F9FF370000000600C408F800C2
:100B80003608F900E04580003628B700C608F800AE
:100B90003808F900F04580003828B700C808F80088
:100BA0003A08F900004680003A28B700CA08F80061
:100BB0003C08F900104680003C28B7000000060001
:100BC000851F7800861F7800871F7800881F7800AF
:100BD0008C08F800C608F9008E08F800C808F9006B
:100BE0009008F800CA08F9009208F800CC08F9004B
:100BF0009408F800CE08F9009608F800D008F9002B
:100C00009808F800D208F9009A08F800D408F9000A
:100C100076050200000000003608F8009C08F90084
:100C20003808F8009E08F9003A08F800A008F90012
:100C30003C08F800A208F90004042000A344800046
:100C40008302520004002000B344800003035A00D2
:100C500004002000C344800083035A0004002000E5
:100C6000D344800003045A008C08F800C608F90039
:100C70008E08F800C808F9009008F800CA08F900C2
:100C80009208F800CC08F90075468800864688006E
:100C900097468800A84688009A05020000000000D8
:100CA0003608F800A408F9003808F800A608F9008A
:100CB0003A08F800A808F9003C08F800AA08F9006A
:100CC0009C08F800BC08F9009E08F800BE08F9006E
:100CD000A008F800C008F900A208F800C208F9004E
:100CE000A408F800C408F900A608F800C608F9002E
:100CF000A808F800C808F900AA08F800CA08F9000E
:100D0000BE050200000000004F047800CF03780009
:100D10004F037800CF027800000006006044800096
:100D20009408B400B0418800B4448000734480004B
:100D300004804900C0418800C4448000834480008E
:100D400004804900D0418800D4448000934480004E
:100D500004804900E0418800000006000000000017
:100D60000000000000000000000000000000000083
:100D70000000000000000000000000009408F800DF
:100D800000000000000000003608F900000000002C
:100D9000000000006044800000000000000000002F
:100DA00036A8B60000000000000000009608F80019
:100DB00000000000000000003808F90000000000FA
:100DC00000000000704480000000000000000000EF
:100DD00038A8B60000000000000000009808F800E5
:100DE00000000000000000003A08F90000000000C8
:100DF00000000000804480000000000000000000AF
:100E00003AA8B60000000000000000009A08F800B0
:100E100000000000000000003C08F9000000000095
:100E2000000000009044800000000000000000006E
:100E30003CA8B60000000000000000000000000018
:100E4000000000000000000000000600851F780080
:100E5000861F7800871F7800881F78008C08F800AC
:100E6000C608F9008E08F800C808F9009008F800D4
:100E7000CA08F9009208F800CC08F9009408F800B4
:100E8000CE08F9009608F800D008F9009808F80094
:100E9000D208F9009A08F800D408F9009A0502006F
:100EA000000000003608F8009C08F9003808F80037
:100EB0009E08F9003A08F800A008F9003C08F8007C
:100EC000A208F90004042000A34480008302520019
:100ED00004002000B344800003035A0004002000F3
:100EE000C344800083035A0004002000D3448000E0
:100EF00003045A008C08F800C608F9008E08F800B0
:100F0000C808F9009008F800CA08F9009208F8002B
:100F1000CC08F90075468800864688009746880008
:100F2000A846880076050200000000003608F80098
:100F3000A408F9003808F800A608F9003A08F800F3
:100F4000A808F9003C08F800AA08F9009C08F80075
:100F5000BC08F9009E08F800BE08F900A008F800D7
:100F6000C008F900A208F800C208F900A408F800B7
:100F7000C408F900A608F800C608F900A808F80097
:100F8000C808F900AA08F800CA08F900BE0502005E
:100F9000000000004F047800CF0378004F03780072
:100FA000CF027800000006002E08F8007C08F90047
:100FB0003008F8007E08F9003208F8008008F900CF
:100FC0003408F8008208F9002608F8008408F900BF
:100FD0002808F8008608F9002A08F8008808F900AF
:100FE0002C08F8008A08F9000608F8001608F9002D
:100FF0000808F8001808F9000A08F8001A08F900AB
:101000000C08F8001C08F9000E08F8001E08F9008A
:101010001008F8002008F9001208F8002208F9006A
:101020001408F8002408F9007428EF007628EF006F
:101030007828EF007A28EF00D44380006020E10098
:1010400039013E000C003900C44380006020E100FB
:1010500035013E0008003900B44380006020E10003
:1010600031013E0004003900A44380000302200047
:101070000418E1002C0136001E08F8008C08F90065
:101080002008F8008E08F9002208F8009008F900FE
:101090002408F8009208F90084002000A444880085
:1010A0009628EF009828EF009A28EF00E00502004C
:1010B000000000003608F8001E08F9003808F800A3
:1010C0002008F9003A08F8002208F9003C08F80066
:1010D0002408F9001E08F8008C08F9002008F80020
:1010E0008E08F9002208F8009008F9002408F8009A
:1010F0009208F9001608F8009408F9001808F8009A
:101100009608F9001A08F8009808F9001C08F80079
:101110009A08F9008E060200000000003608F80068
:101120001E08F9003808F8002008F9003A08F8000D
:101130002208F9003C08F8002408F9001E08F8000D
:101140008C08F9002008F8008E08F9002208F80041
:101150009008F9002408F8009208F9008408F800C3
:101160009408F9008608F8009608F9008808F80045
:101170009808F9008A08F8009A08F900AE060200FB
:10118000000000007E3E0900000000007408E2003C
:1011900008003A007608E20006003A007808E2000B
:1011A00004003A007A08E20002003A00C802A900EE
:1011B000CC02A800A44380006120E10008003A00AE
:1011C0007608E20006003A007808E20004003A00DF
:1011D0007A08E20002003A00C822A900CC22A80046
:1011E0003608F8001E08F9003808F8002008F90051
:1011F0003A08F8002208F9003C08F8002408F90031
:101200001608F8008C08F9001808F8008E08F90094
:101210001A08F8009008F9001C08F8009208F90074
:1012200034002000A44488009628EF009828EF009E
:101230009A28EF0026070200000000003608F80098
:101240001608F9003808F8001808F9003A08F800FC
:101250001A08F9003C08F8001C08F9001E08F800FC
:101260008C08F9002008F8008E08F9002208F80020
:101270009008F9002408F8009208F9001608F80010
:101280009408F9001808F8009608F9001A08F80000
:101290009808F9001C08F8009A08F900AE06020048
:1012A000000000003608F8001608F9003808F800B9
:1012B0001808F9003A08F8001A08F9003C08F80084
:1012C0001C08F9007408E20008003A007608E20001
:1012D00006003A007808E20004003A007A08E200CA
:1012E00002003A00C802A900CC02A900A443800071
:1012F0006120E10008003A007608E20006003A00AA
:101300007808E20004003A007A08E20002003A009D
:10131000C822A900CC22A9007C08F8008C08F9009A
:101320007E08F8008E08F9008008F8009008F9009F
:101330008208F8009208F90084002000A444880084
:101340009628EF009828EF009A28EF00E0050200A9
:10135000000000003608F8007C08F9003808F800A2
:101360007E08F9003A08F8008008F9003C08F80007
:101370008208F9007C08F8008C08F9007E08F80063
:101380008E08F9008008F8009008F9008208F8003B
:101390009208F9008408F8009408F9008608F8001B
:1013A0009608F9008808F8009808F9008A08F800FB
:1013B0009A08F9008E060200000000003608F800C6
:1013C0007C08F9003808F8007E08F9003A08F800AF
:1013D0008008F9003C08F8008208F9007C08F80051
:1013E0008C08F9007E08F8008E08F9008008F800E3
:1013F0009008F9008208F8009208F9007408F800D3
:101400009408F9007608F8009608F9007808F800C2
:101410009808F9007A08F8009A08F900AE06020068
:10142000000000003608F8007C08F9003808F800D1
:101430007E08F9003A08F8008008F9003C08F80036
:101440008208F9008408F8008C08F9008608F80082
:101450008E08F9008808F8009008F9008A08F8005A
:101460009208F90034002000A44488009628EF0078
:101470009828EF009A28EF002607020000000000DD
:101480003608F8008408F9003808F8008608F900E2
:101490003A08F8008808F9003C08F8008A08F900C2
:1014A0007C08F8008C08F9007E08F8008E08F90026
:1014B0008008F8009008F9008208F8009208F90006
:1014C0008408F8009408F9008608F8009608F900E6
:1014D0008808F8009808F9008A08F8009A08F900C6
:1014E000AE060200000000003608F8008408F9008B
:1014F0003808F8008608F9003A08F8008808F9006A
:101500003C08F8008A08F9007428EC004220AF007B
:101510007628EC004220AF007828EC004220AF0093
:101520007A28EC00C4FE3700000006000000E0004E
:101530004220AF0004003700793E0900000000009F
:101540000000E900F9FF370000000600851F780061
:10155000C500200003000900B51F7800000020002E
:101560007808B40080027800000020007A08B400F7
:10157000C400200003000900301A780013C0BF0027
:10158000004378000D60EF008043EB000F60EF0038
:101590000044EB001160EF008044EB001360EF00AB
:1015A0008001EB000001EB008000EB0006007800FA
:1015B000F00FB200804A7800100020007808B400D4
:1015C00080027800000020007A08B400C4002000E7
:1015D00003000900301A7800090378000700200092
:1015E00008002000090020008001EB000001EB0052
:1015F0008000EB0006007800F00FB200804A78000F
:10160000200020007808B40080027800000020004C
:101610007A08B400C400200003000900301A7800E2
:1016200011C0BF0000437800094078000DE0B7000A
:1016300013C0BF00804378000F60EF000044EB0050
:101640001160EF008044EB001360EF008001EB00BD
:101650000001EB008000EB0006007800F00FB20004
:10166000804A7800300020007808B40080027800BA
:10167000000020007A08B400C40020000300090024
:10168000301A7800080378008903780008002000E9
:10169000090020008001EB000001EB008000EB005E
:1016A00006007800F00FB200804A78004000200069
:1016B0007808B40080027800000020007A08B400A6
:1016C000C400200003000900301A78000FC0BF00DA
:1016D00000437800084078000DE0B70011C0BF005B
:1016E00080437800094078000FE0B70013C0BF00C6
:1016F000004478001160EF008044EB001360EF00BD
:101700008001EB000001EB008000EB000600780098
:10171000F00FB200804A7800500020007808B40032
:1017200080027800000020007A08B400C400200085
:1017300003000900301A7800070378008803780056
:1017400009047800090020008001EB000001EB0093
:101750008000EB0006007800F00FB200804A7800AD
:10176000600020007808B4008002780000002000AB
:101770007A08B400C400200003000900301A780081
:101780000DC0BF0000437800074078000DE0B700AF
:101790000FC0BF0080437800084078000FE0B7001A
:1017A00011C0BF00004478000940780011E0B70084
:1017B00013C0BF00804478001360EF008001EB008D
:1017C0000001EB008000EB0006007800F00FB20093
:1017D000804A7800700020007808B4008002780009
:1017E000000020007A08B400C400200003000900B3
:1017F000301A78008001EB000001EB008000EB0064
:1018000006007800F00FB200804A780080002000C7
:101810007808B40080027800800020007A08B400C4
:10182000C400200003000900301A780013C0BF0074
:10183000004378000D60EF008043EB000F60EF0085
:101840000044EB001160EF008044EB001360EF00F8
:101850008001EB000001EB008000EB000600780047
:10186000F00FB200804A7800900020007808B400A1
:1018700080027800800020007A08B400C4002000B4
:1018800003000900301A78000903780007002000DF
:1018900008002000090020008001EB000001EB009F
:1018A0008000EB0006007800F00FB200804A78005C
:1018B000A00020007808B40080027800800020009A
:1018C0007A08B400C400200003000900301A780030
:1018D00011C0BF0000437800094078000DE0B70058
:1018E00013C0BF00804378000F60EF000044EB009E
:1018F0001160EF008044EB001360EF008001EB000B
:101900000001EB008000EB0006007800F00FB20051
:10191000804A7800B00020007808B4008002780087
:10192000800020007A08B400C400200003000900F1
:10193000301A780008037800890378000800200036
:10194000090020008001EB000001EB008000EB00AB
:1019500006007800F00FB200804A7800C000200036
:101960007808B40080027800800020007A08B40073
:10197000C400200003000900301A78000FC0BF0027
:1019800000437800084078000DE0B70011C0BF00A8
:1019900080437800094078000FE0B70013C0BF0013
:1019A000004478001160EF008044EB001360EF000A
:1019B0008001EB000001EB008000EB0006007800E6
:1019C000F00FB200804A7800D00020007808B40000
:1019D00080027800800020007A08B400C400200053
:1019E00003000900301A78000703780088037800A4
:1019F00009047800090020008001EB000001EB00E1
:101A00008000EB0006007800F00FB200804A7800FA
:101A1000E00020007808B4008002780080002000F8
:101A20007A08B400C400200003000900301A7800CE
:101A30000DC0BF0000437800074078000DE0B700FC
:101A40000FC0BF0080437800084078000FE0B70067
:101A500011C0BF00004478000940780011E0B700D1
:101A600013C0BF00804478001360EF008001EB00DA
:101A70000001EB008000EB0006007800F00FB200E0
:101A8000804A7800F00020007808B40080027800D6
:101A9000800020007A08B400C40020000300090080
:101AA000301A78008001EB000001EB008000EB00B1
:101AB00006007800F00FB200804A7800250120006F
:101AC00003000900CF127800CF0278000000060062
:101AD00081E0A80090F02100A4A6B700300020000B
:101AE000C8A6B7006004200042E7B70070052000D8
:101AF00042E7B70042C7A80004002800041188008C
:101B000004402000141188002062A800041A20005C
:101B1000441188003628EF003828EF003A28EF00FB
:101B20003C28EF002CA3EF000F782200F07F22006A
:101B300020A0B700000000000028EF005F68EF0061
:101B400000020200000000006228EF001443800041
:101B5000030220000418E10016003400E483200092
:101B600013438000848241002202AE00FEFF370052
:101B700030118000804A7800E48320001343800005
:101B8000048041001042780094C7B20007003A0078
:101B90002202AE00050037002202AE00FEFF370031
:101BA000301180005FE8B700F9FF37006228EC00D1
:101BB000E6FF3700E4832000134380008482410065
:101BC000804AEB006228EF00144380007020E1009F
:101BD00025003D00144380006220B8008002780098
:101BE000E48320000480420004438000004290000F
:101BF00004438800144380006220B800800278000B
:101C0000E1824200E483200004804200104078001A
:101C100061E8B700144380007020E10010003D002F
:101C200044862000134380008482410061C8BF00C5
:101C30007AE8B700220202000000000000037800EA
:101C400060C8BF007AE8B70022020200000000006E
:101C5000000278007020B80006004000804A78003A
:101C60006228EC00D8FF37006228EF0014438000A0
:101C70007020E1000B003D004486200013438000EB
:101C80000480410090427800054078000160EF0038
:101C900021702000D2020200000000006228EC0047
:101CA000F2FF370065802000C5438800448620008D
:101CB000D443880008030200000000002202AE00A6
:101CC000130037002202AE00FEFF37003011800003
:101CD0005FE8B700F44280004822DE00A4C7B200EB
:101CE00002003A0010003700080037002202AE0060
:101CF000050037002202AE00FEFF370030118000E1
:101D00005FE8B700F9FF370007003700050037002C
:101D1000D40702000000000050002000960A0200D4
:101D200000000000E5FF37006581200044862000A8
:101D3000C4438800D5438800A60A020000000000C2
:101D40006228EF00144380007020E1000B003D008A
:101D500044862000134380000480410090427800B4
:101D6000054078000160EF0021702000D2020200DF
:101D7000000000006228EC00F2FF37005000200055
:101D8000960A0200000000006FFF37000040FE00CE
:08AFF800F5FB00007F3F0000A3
:00000001FF
;PIC24FJ32GA002
;CRC=1009  CREATED="19-Jun-15 13:14"
